{
  "contractName": "OceanSix721",
  "abi": [
    {
      "inputs": [
        {
          "internalType": "string",
          "name": "name",
          "type": "string"
        },
        {
          "internalType": "string",
          "name": "symbol",
          "type": "string"
        },
        {
          "internalType": "string",
          "name": "baseTokenURI",
          "type": "string"
        },
        {
          "internalType": "string",
          "name": "notRevealedURI",
          "type": "string"
        },
        {
          "internalType": "bytes32",
          "name": "merkleRoot",
          "type": "bytes32"
        },
        {
          "internalType": "address",
          "name": "mbeneficiary",
          "type": "address"
        }
      ],
      "stateMutability": "nonpayable",
      "type": "constructor"
    },
    {
      "anonymous": false,
      "inputs": [
        {
          "indexed": true,
          "internalType": "address",
          "name": "to",
          "type": "address"
        },
        {
          "indexed": true,
          "internalType": "uint256",
          "name": "tokenId",
          "type": "uint256"
        }
      ],
      "name": "AdminMinted",
      "type": "event"
    },
    {
      "anonymous": false,
      "inputs": [
        {
          "indexed": true,
          "internalType": "address",
          "name": "owner",
          "type": "address"
        },
        {
          "indexed": true,
          "internalType": "address",
          "name": "approved",
          "type": "address"
        },
        {
          "indexed": true,
          "internalType": "uint256",
          "name": "tokenId",
          "type": "uint256"
        }
      ],
      "name": "Approval",
      "type": "event"
    },
    {
      "anonymous": false,
      "inputs": [
        {
          "indexed": true,
          "internalType": "address",
          "name": "owner",
          "type": "address"
        },
        {
          "indexed": true,
          "internalType": "address",
          "name": "operator",
          "type": "address"
        },
        {
          "indexed": false,
          "internalType": "bool",
          "name": "approved",
          "type": "bool"
        }
      ],
      "name": "ApprovalForAll",
      "type": "event"
    },
    {
      "anonymous": false,
      "inputs": [
        {
          "indexed": true,
          "internalType": "address",
          "name": "to",
          "type": "address"
        },
        {
          "indexed": true,
          "internalType": "uint256",
          "name": "tokenId",
          "type": "uint256"
        }
      ],
      "name": "Minted",
      "type": "event"
    },
    {
      "anonymous": false,
      "inputs": [
        {
          "indexed": true,
          "internalType": "address",
          "name": "previousOwner",
          "type": "address"
        },
        {
          "indexed": true,
          "internalType": "address",
          "name": "newOwner",
          "type": "address"
        }
      ],
      "name": "OwnershipTransferred",
      "type": "event"
    },
    {
      "anonymous": false,
      "inputs": [
        {
          "indexed": false,
          "internalType": "address",
          "name": "account",
          "type": "address"
        }
      ],
      "name": "Paused",
      "type": "event"
    },
    {
      "anonymous": false,
      "inputs": [
        {
          "indexed": true,
          "internalType": "enum OceanSix721.Phase",
          "name": "phase",
          "type": "uint8"
        },
        {
          "indexed": true,
          "internalType": "uint256",
          "name": "mintCost",
          "type": "uint256"
        },
        {
          "indexed": true,
          "internalType": "uint256",
          "name": "mintingLimit",
          "type": "uint256"
        }
      ],
      "name": "PhaseTriggered",
      "type": "event"
    },
    {
      "anonymous": false,
      "inputs": [
        {
          "indexed": true,
          "internalType": "address",
          "name": "from",
          "type": "address"
        },
        {
          "indexed": true,
          "internalType": "address",
          "name": "to",
          "type": "address"
        },
        {
          "indexed": true,
          "internalType": "uint256",
          "name": "tokenId",
          "type": "uint256"
        }
      ],
      "name": "Transfer",
      "type": "event"
    },
    {
      "anonymous": false,
      "inputs": [
        {
          "indexed": false,
          "internalType": "address",
          "name": "account",
          "type": "address"
        }
      ],
      "name": "Unpaused",
      "type": "event"
    },
    {
      "stateMutability": "payable",
      "type": "fallback"
    },
    {
      "inputs": [
        {
          "internalType": "enum OceanSix721.Phase",
          "name": "",
          "type": "uint8"
        }
      ],
      "name": "_mintPrice",
      "outputs": [
        {
          "internalType": "uint256",
          "name": "",
          "type": "uint256"
        }
      ],
      "stateMutability": "view",
      "type": "function"
    },
    {
      "inputs": [
        {
          "internalType": "enum OceanSix721.Phase",
          "name": "",
          "type": "uint8"
        },
        {
          "internalType": "address",
          "name": "",
          "type": "address"
        }
      ],
      "name": "_mintsPerUser",
      "outputs": [
        {
          "internalType": "uint256",
          "name": "",
          "type": "uint256"
        }
      ],
      "stateMutability": "view",
      "type": "function"
    },
    {
      "inputs": [],
      "name": "_notRevealedURI",
      "outputs": [
        {
          "internalType": "string",
          "name": "",
          "type": "string"
        }
      ],
      "stateMutability": "view",
      "type": "function"
    },
    {
      "inputs": [
        {
          "internalType": "address",
          "name": "to",
          "type": "address"
        },
        {
          "internalType": "uint256",
          "name": "tokenId",
          "type": "uint256"
        }
      ],
      "name": "approve",
      "outputs": [],
      "stateMutability": "nonpayable",
      "type": "function"
    },
    {
      "inputs": [
        {
          "internalType": "address",
          "name": "owner",
          "type": "address"
        }
      ],
      "name": "balanceOf",
      "outputs": [
        {
          "internalType": "uint256",
          "name": "",
          "type": "uint256"
        }
      ],
      "stateMutability": "view",
      "type": "function"
    },
    {
      "inputs": [
        {
          "internalType": "uint256",
          "name": "tokenId",
          "type": "uint256"
        }
      ],
      "name": "burn",
      "outputs": [],
      "stateMutability": "nonpayable",
      "type": "function"
    },
    {
      "inputs": [
        {
          "internalType": "uint256",
          "name": "tokenId",
          "type": "uint256"
        }
      ],
      "name": "getApproved",
      "outputs": [
        {
          "internalType": "address",
          "name": "",
          "type": "address"
        }
      ],
      "stateMutability": "view",
      "type": "function"
    },
    {
      "inputs": [
        {
          "internalType": "address",
          "name": "owner",
          "type": "address"
        },
        {
          "internalType": "address",
          "name": "operator",
          "type": "address"
        }
      ],
      "name": "isApprovedForAll",
      "outputs": [
        {
          "internalType": "bool",
          "name": "",
          "type": "bool"
        }
      ],
      "stateMutability": "view",
      "type": "function"
    },
    {
      "inputs": [],
      "name": "locked",
      "outputs": [
        {
          "internalType": "bool",
          "name": "",
          "type": "bool"
        }
      ],
      "stateMutability": "view",
      "type": "function"
    },
    {
      "inputs": [],
      "name": "name",
      "outputs": [
        {
          "internalType": "string",
          "name": "",
          "type": "string"
        }
      ],
      "stateMutability": "view",
      "type": "function"
    },
    {
      "inputs": [],
      "name": "owner",
      "outputs": [
        {
          "internalType": "address",
          "name": "",
          "type": "address"
        }
      ],
      "stateMutability": "view",
      "type": "function"
    },
    {
      "inputs": [
        {
          "internalType": "uint256",
          "name": "tokenId",
          "type": "uint256"
        }
      ],
      "name": "ownerOf",
      "outputs": [
        {
          "internalType": "address",
          "name": "",
          "type": "address"
        }
      ],
      "stateMutability": "view",
      "type": "function"
    },
    {
      "inputs": [],
      "name": "paused",
      "outputs": [
        {
          "internalType": "bool",
          "name": "",
          "type": "bool"
        }
      ],
      "stateMutability": "view",
      "type": "function"
    },
    {
      "inputs": [],
      "name": "renounceOwnership",
      "outputs": [],
      "stateMutability": "nonpayable",
      "type": "function"
    },
    {
      "inputs": [],
      "name": "revealed",
      "outputs": [
        {
          "internalType": "bool",
          "name": "",
          "type": "bool"
        }
      ],
      "stateMutability": "view",
      "type": "function"
    },
    {
      "inputs": [
        {
          "internalType": "address",
          "name": "from",
          "type": "address"
        },
        {
          "internalType": "address",
          "name": "to",
          "type": "address"
        },
        {
          "internalType": "uint256",
          "name": "tokenId",
          "type": "uint256"
        }
      ],
      "name": "safeTransferFrom",
      "outputs": [],
      "stateMutability": "nonpayable",
      "type": "function"
    },
    {
      "inputs": [
        {
          "internalType": "address",
          "name": "from",
          "type": "address"
        },
        {
          "internalType": "address",
          "name": "to",
          "type": "address"
        },
        {
          "internalType": "uint256",
          "name": "tokenId",
          "type": "uint256"
        },
        {
          "internalType": "bytes",
          "name": "_data",
          "type": "bytes"
        }
      ],
      "name": "safeTransferFrom",
      "outputs": [],
      "stateMutability": "nonpayable",
      "type": "function"
    },
    {
      "inputs": [
        {
          "internalType": "address",
          "name": "operator",
          "type": "address"
        },
        {
          "internalType": "bool",
          "name": "approved",
          "type": "bool"
        }
      ],
      "name": "setApprovalForAll",
      "outputs": [],
      "stateMutability": "nonpayable",
      "type": "function"
    },
    {
      "inputs": [
        {
          "internalType": "bytes4",
          "name": "interfaceId",
          "type": "bytes4"
        }
      ],
      "name": "supportsInterface",
      "outputs": [
        {
          "internalType": "bool",
          "name": "",
          "type": "bool"
        }
      ],
      "stateMutability": "view",
      "type": "function"
    },
    {
      "inputs": [],
      "name": "symbol",
      "outputs": [
        {
          "internalType": "string",
          "name": "",
          "type": "string"
        }
      ],
      "stateMutability": "view",
      "type": "function"
    },
    {
      "inputs": [
        {
          "internalType": "address",
          "name": "from",
          "type": "address"
        },
        {
          "internalType": "address",
          "name": "to",
          "type": "address"
        },
        {
          "internalType": "uint256",
          "name": "tokenId",
          "type": "uint256"
        }
      ],
      "name": "transferFrom",
      "outputs": [],
      "stateMutability": "nonpayable",
      "type": "function"
    },
    {
      "inputs": [
        {
          "internalType": "address",
          "name": "newOwner",
          "type": "address"
        }
      ],
      "name": "transferOwnership",
      "outputs": [],
      "stateMutability": "nonpayable",
      "type": "function"
    },
    {
      "stateMutability": "payable",
      "type": "receive"
    },
    {
      "inputs": [
        {
          "internalType": "uint256",
          "name": "tokenId",
          "type": "uint256"
        }
      ],
      "name": "tokenURI",
      "outputs": [
        {
          "internalType": "string",
          "name": "",
          "type": "string"
        }
      ],
      "stateMutability": "view",
      "type": "function"
    },
    {
      "inputs": [
        {
          "internalType": "address",
          "name": "mintingBeneficiary",
          "type": "address"
        },
        {
          "internalType": "address",
          "name": "_owner",
          "type": "address"
        }
      ],
      "name": "updateAddressesAndTransferOwnership",
      "outputs": [],
      "stateMutability": "nonpayable",
      "type": "function"
    },
    {
      "inputs": [
        {
          "internalType": "address",
          "name": "to",
          "type": "address"
        }
      ],
      "name": "adminMint",
      "outputs": [],
      "stateMutability": "nonpayable",
      "type": "function"
    },
    {
      "inputs": [
        {
          "internalType": "address",
          "name": "to",
          "type": "address"
        },
        {
          "internalType": "uint32",
          "name": "amount",
          "type": "uint32"
        },
        {
          "internalType": "bytes32[]",
          "name": "_proof",
          "type": "bytes32[]"
        }
      ],
      "name": "mint",
      "outputs": [],
      "stateMutability": "payable",
      "type": "function"
    },
    {
      "inputs": [],
      "name": "pause",
      "outputs": [],
      "stateMutability": "nonpayable",
      "type": "function"
    },
    {
      "inputs": [],
      "name": "unpause",
      "outputs": [],
      "stateMutability": "nonpayable",
      "type": "function"
    },
    {
      "inputs": [
        {
          "internalType": "address",
          "name": "beneficiary",
          "type": "address"
        }
      ],
      "name": "changeMintBeneficiary",
      "outputs": [],
      "stateMutability": "nonpayable",
      "type": "function"
    },
    {
      "inputs": [
        {
          "internalType": "enum OceanSix721.Phase",
          "name": "phase",
          "type": "uint8"
        },
        {
          "internalType": "uint256",
          "name": "mintCost",
          "type": "uint256"
        },
        {
          "internalType": "uint32",
          "name": "mintingLimit",
          "type": "uint32"
        }
      ],
      "name": "setPhase",
      "outputs": [],
      "stateMutability": "nonpayable",
      "type": "function"
    },
    {
      "inputs": [],
      "name": "getPhase",
      "outputs": [
        {
          "internalType": "enum OceanSix721.Phase",
          "name": "",
          "type": "uint8"
        }
      ],
      "stateMutability": "view",
      "type": "function"
    },
    {
      "inputs": [],
      "name": "getMintingLimit",
      "outputs": [
        {
          "internalType": "uint256",
          "name": "",
          "type": "uint256"
        }
      ],
      "stateMutability": "view",
      "type": "function"
    },
    {
      "inputs": [
        {
          "internalType": "uint256",
          "name": "mintCost",
          "type": "uint256"
        }
      ],
      "name": "changeMintCost",
      "outputs": [],
      "stateMutability": "nonpayable",
      "type": "function"
    },
    {
      "inputs": [
        {
          "internalType": "string",
          "name": "newBaseURI",
          "type": "string"
        }
      ],
      "name": "changeBaseURI",
      "outputs": [],
      "stateMutability": "nonpayable",
      "type": "function"
    },
    {
      "inputs": [
        {
          "internalType": "string",
          "name": "newNotRevealedUri",
          "type": "string"
        }
      ],
      "name": "changeNotRevealedURI",
      "outputs": [],
      "stateMutability": "nonpayable",
      "type": "function"
    },
    {
      "inputs": [],
      "name": "reveal",
      "outputs": [],
      "stateMutability": "nonpayable",
      "type": "function"
    },
    {
      "inputs": [],
      "name": "lockMetadata",
      "outputs": [],
      "stateMutability": "nonpayable",
      "type": "function"
    },
    {
      "inputs": [
        {
          "internalType": "bytes32",
          "name": "merkleRoot",
          "type": "bytes32"
        }
      ],
      "name": "changeMerkleRoot",
      "outputs": [],
      "stateMutability": "nonpayable",
      "type": "function"
    },
    {
      "inputs": [
        {
          "internalType": "uint32",
          "name": "amount",
          "type": "uint32"
        }
      ],
      "name": "maxSupplyNotExceeded",
      "outputs": [
        {
          "internalType": "bool",
          "name": "",
          "type": "bool"
        }
      ],
      "stateMutability": "view",
      "type": "function"
    },
    {
      "inputs": [],
      "name": "totalSupply",
      "outputs": [
        {
          "internalType": "uint256",
          "name": "",
          "type": "uint256"
        }
      ],
      "stateMutability": "view",
      "type": "function"
    }
  ],
  "bytecode": "0x60806040523480156200001157600080fd5b506040516200384238038062003842833981016040819052620000349162000367565b858562000041336200017e565b815162000056906001906020850190620001d7565b5080516200006c906002906020840190620001d7565b50506007805460ff19908116909155600b805490911690555060008052600e6020908152662386f26fc100007fe710864318d4a32f37d6ce54cb3fadbef648dd12d8dbdf53973564d56b7f881c55601080546001600160401b031916640300000016179055600d83905560408051808201909152600580825264173539b7b760d91b919092019081526200010491600a9190620001d7565b5083516200011a906008906020870190620001d7565b50825162000130906009906020860190620001d7565b5060108054600160401b600160e01b031916680100000000000000006001600160a01b0384160217905562000172600c620001ce602090811b62001bba17901c565b50505050505062000477565b600080546001600160a01b038381166001600160a01b0319831681178455604051919092169283917f8be0079c531659141344cd1fd0a4f28419497f9722a3daafe3b4186f6b6457e09190a35050565b80546001019055565b828054620001e5906200043b565b90600052602060002090601f01602090048101928262000209576000855562000254565b82601f106200022457805160ff191683800117855562000254565b8280016001018555821562000254579182015b828111156200025457825182559160200191906001019062000237565b506200026292915062000266565b5090565b5b8082111562000262576000815560010162000267565b634e487b7160e01b600052604160045260246000fd5b600082601f830112620002a557600080fd5b81516001600160401b0380821115620002c257620002c26200027d565b604051601f8301601f19908116603f01168101908282118183101715620002ed57620002ed6200027d565b816040528381526020925086838588010111156200030a57600080fd5b600091505b838210156200032e57858201830151818301840152908201906200030f565b83821115620003405760008385830101525b9695505050505050565b80516001600160a01b03811681146200036257600080fd5b919050565b60008060008060008060c087890312156200038157600080fd5b86516001600160401b03808211156200039957600080fd5b620003a78a838b0162000293565b97506020890151915080821115620003be57600080fd5b620003cc8a838b0162000293565b96506040890151915080821115620003e357600080fd5b620003f18a838b0162000293565b955060608901519150808211156200040857600080fd5b506200041789828a0162000293565b935050608087015191506200042f60a088016200034a565b90509295509295509295565b600181811c908216806200045057607f821691505b6020821081036200047157634e487b7160e01b600052602260045260246000fd5b50919050565b6133bb80620004876000396000f3fe60806040526004361061023f5760003560e01c80638456cb591161012e578063bdff78ac116100ab578063e985e9c51161006f578063e985e9c5146106bf578063ebcea3db14610708578063eced028014610728578063f2fde38b14610748578063f44f974f1461076857610265565b8063bdff78ac14610628578063c87b56dd1461064b578063c975af6a1461066b578063cf3090121461068b578063daefb20c146106ac57610265565b8063989bdbb6116100f2578063989bdbb61461059e578063a22cb465146105b3578063a475b5dd146105d3578063b3788aa6146105e8578063b88d4fde1461060857610265565b80638456cb59146105165780638ad7a61f1461052b5780638da5cb5b1461054b57806395d89b41146105695780639769dc0e1461057e57610265565b806342966c68116101bc57806363af0fef1161018057806363af0fef1461047457806370a0823114610494578063715018a6146104b45780637f1921ef146104c95780637fe21a54146104e957610265565b806342966c68146103e657806346eb4c9a14610406578063518302271461041b5780635c975abb1461043c5780636352211e1461045457610265565b806318160ddd1161020357806318160ddd1461034e57806323b872dd1461037157806339a0c6f9146103915780633f4ba83a146103b157806342842e0e146103c657610265565b806301ffc9a71461027d57806306fdde03146102b2578063081812fc146102d4578063095ea7b31461030c5780630fa4d8781461032e57610265565b366102655760405162461bcd60e51b815260040161025c90612a34565b60405180910390fd5b60405162461bcd60e51b815260040161025c90612a34565b34801561028957600080fd5b5061029d610298366004612a95565b6107a0565b60405190151581526020015b60405180910390f35b3480156102be57600080fd5b506102c76107f2565b6040516102a99190612b0a565b3480156102e057600080fd5b506102f46102ef366004612b1d565b610884565b6040516001600160a01b0390911681526020016102a9565b34801561031857600080fd5b5061032c610327366004612b52565b610919565b005b34801561033a57600080fd5b5061032c610349366004612c1b565b610a2e565b34801561035a57600080fd5b50610363610b4a565b6040519081526020016102a9565b34801561037d57600080fd5b5061032c61038c366004612c64565b610b65565b34801561039d57600080fd5b5061032c6103ac366004612c1b565b610b97565b3480156103bd57600080fd5b5061032c610cb3565b3480156103d257600080fd5b5061032c6103e1366004612c64565b610ce7565b3480156103f257600080fd5b5061032c610401366004612b1d565b610d02565b34801561041257600080fd5b506102c7610d7c565b34801561042757600080fd5b5060105461029d90600160e81b900460ff1681565b34801561044857600080fd5b5060075460ff1661029d565b34801561046057600080fd5b506102f461046f366004612b1d565b610e0a565b34801561048057600080fd5b5061029d61048f366004612cb4565b610e81565b3480156104a057600080fd5b506103636104af366004612ccf565b610f10565b3480156104c057600080fd5b5061032c610f97565b3480156104d557600080fd5b5061032c6104e4366004612b1d565b610fcb565b3480156104f557600080fd5b50610363610504366004612cf9565b600e6020526000908152604090205481565b34801561052257600080fd5b5061032c6110de565b34801561053757600080fd5b5061032c610546366004612d14565b611110565b34801561055757600080fd5b506000546001600160a01b03166102f4565b34801561057557600080fd5b506102c761114c565b34801561058a57600080fd5b5061032c610599366004612ccf565b61115b565b3480156105aa57600080fd5b5061032c611260565b3480156105bf57600080fd5b5061032c6105ce366004612d47565b611322565b3480156105df57600080fd5b5061032c61132d565b3480156105f457600080fd5b5061032c610603366004612d83565b611396565b34801561061457600080fd5b5061032c610623366004612dbf565b611528565b34801561063457600080fd5b50601054640100000000900463ffffffff16610363565b34801561065757600080fd5b506102c7610666366004612b1d565b611560565b34801561067757600080fd5b5061032c610686366004612ccf565b611635565b34801561069757600080fd5b5060105461029d90600160e01b900460ff1681565b61032c6106ba366004612e3b565b61178e565b3480156106cb57600080fd5b5061029d6106da366004612d14565b6001600160a01b03918216600090815260066020908152604080832093909416825291909152205460ff1690565b34801561071457600080fd5b5061032c610723366004612b1d565b611a86565b34801561073457600080fd5b50600b5460ff166040516102a99190612f1a565b34801561075457600080fd5b5061032c610763366004612ccf565b611b22565b34801561077457600080fd5b50610363610783366004612f42565b600f60209081526000928352604080842090915290825290205481565b60006001600160e01b031982166380ac58cd60e01b14806107d157506001600160e01b03198216635b5e139f60e01b145b806107ec57506301ffc9a760e01b6001600160e01b03198316145b92915050565b60606001805461080190612f5e565b80601f016020809104026020016040519081016040528092919081815260200182805461082d90612f5e565b801561087a5780601f1061084f5761010080835404028352916020019161087a565b820191906000526020600020905b81548152906001019060200180831161085d57829003601f168201915b5050505050905090565b6000818152600360205260408120546001600160a01b03166108fd5760405162461bcd60e51b815260206004820152602c60248201527f4552433732313a20617070726f76656420717565727920666f72206e6f6e657860448201526b34b9ba32b73a103a37b5b2b760a11b606482015260840161025c565b506000908152600560205260409020546001600160a01b031690565b600061092482610e0a565b9050806001600160a01b0316836001600160a01b0316036109915760405162461bcd60e51b815260206004820152602160248201527f4552433732313a20617070726f76616c20746f2063757272656e74206f776e656044820152603960f91b606482015260840161025c565b336001600160a01b03821614806109ad57506109ad81336106da565b610a1f5760405162461bcd60e51b815260206004820152603860248201527f4552433732313a20617070726f76652063616c6c6572206973206e6f74206f7760448201527f6e6572206e6f7220617070726f76656420666f7220616c6c0000000000000000606482015260840161025c565b610a298383611bc3565b505050565b6000546001600160a01b03163314610a585760405162461bcd60e51b815260040161025c90612f98565b601054600160e81b900460ff1615610a825760405162461bcd60e51b815260040161025c90612fcd565b6009604051602001610a9491906130aa565b6040516020818303038152906040528051906020012081604051602001610abb91906130b6565b6040516020818303038152906040528051906020012003610b335760405162461bcd60e51b815260206004820152602c60248201527f4d50524e3732313a2042617365205552492063616e6e6f742062652073616d6560448201526b2061732070726576696f757360a01b606482015260840161025c565b8051610b4690600990602084019061299b565b5050565b6000610b606001610b5a600c5490565b90611c31565b905090565b610b70335b82611c44565b610b8c5760405162461bcd60e51b815260040161025c906130d2565b610a29838383611d3b565b6000546001600160a01b03163314610bc15760405162461bcd60e51b815260040161025c90612f98565b601054600160e01b900460ff1615610beb5760405162461bcd60e51b815260040161025c90613123565b80604051602001610bfc91906130b6565b604051602081830303815290604052805190602001206008604051602001610c2491906130aa565b6040516020818303038152906040528051906020012003610ca05760405162461bcd60e51b815260206004820152603060248201527f4f6365616e5369783732313a2042617365205552492063616e6e6f742062652060448201526f73616d652061732070726576696f757360801b606482015260840161025c565b8051610b4690600890602084019061299b565b6000546001600160a01b03163314610cdd5760405162461bcd60e51b815260040161025c90612f98565b610ce5611ee2565b565b610a2983838360405180602001604052806000815250611528565b610d0b33610b6a565b610d705760405162461bcd60e51b815260206004820152603060248201527f4552433732314275726e61626c653a2063616c6c6572206973206e6f74206f7760448201526f1b995c881b9bdc88185c1c1c9bdd995960821b606482015260840161025c565b610d7981611f75565b50565b60098054610d8990612f5e565b80601f0160208091040260200160405190810160405280929190818152602001828054610db590612f5e565b8015610e025780601f10610dd757610100808354040283529160200191610e02565b820191906000526020600020905b815481529060010190602001808311610de557829003601f168201915b505050505081565b6000818152600360205260408120546001600160a01b0316806107ec5760405162461bcd60e51b815260206004820152602960248201527f4552433732313a206f776e657220717565727920666f72206e6f6e657869737460448201526832b73a103a37b5b2b760b91b606482015260840161025c565b60105460009063ffffffff90811690610eae90610ea59085811690600190611c3116565b600c549061201c565b1115610f085760405162461bcd60e51b815260206004820152602360248201527f4f6365616e5369783732313a206d6178204e4654206c696d697420657863656560448201526219195960ea1b606482015260840161025c565b506001919050565b60006001600160a01b038216610f7b5760405162461bcd60e51b815260206004820152602a60248201527f4552433732313a2062616c616e636520717565727920666f7220746865207a65604482015269726f206164647265737360b01b606482015260840161025c565b506001600160a01b031660009081526004602052604090205490565b6000546001600160a01b03163314610fc15760405162461bcd60e51b815260040161025c90612f98565b610ce56000612028565b6000546001600160a01b03163314610ff55760405162461bcd60e51b815260040161025c90612f98565b600b54600e9060009060ff16600181111561101257611012612f04565b600181111561102357611023612f04565b815260200190815260200160002054810361109a5760405162461bcd60e51b815260206004820152603160248201527f4f6365616e5369783732313a206d696e7420636f73742063616e6e6f742062656044820152702073616d652061732070726576696f757360781b606482015260840161025c565b600b548190600e9060009060ff1660018111156110b9576110b9612f04565b60018111156110ca576110ca612f04565b815260208101919091526040016000205550565b6000546001600160a01b031633146111085760405162461bcd60e51b815260040161025c90612f98565b610ce5612078565b6000546001600160a01b0316331461113a5760405162461bcd60e51b815260040161025c90612f98565b61114382611635565b610b4681611b22565b60606002805461080190612f5e565b60075460ff161561117e5760405162461bcd60e51b815260040161025c90613168565b6000546001600160a01b031633146111a85760405162461bcd60e51b815260040161025c90612f98565b6001600160a01b0381166111fe5760405162461bcd60e51b815260206004820181905260248201527f4f6365616e5369783732313a20416464726573732063616e6e6f742062652030604482015260640161025c565b6112086001610e81565b5061121b81611216600c5490565b6120d0565b600c546040516001600160a01b038316907fb95721a138d27da82cf85d0a1081e8753ff7229d98779aaf27125068c1d5f90a90600090a3610d79600c80546001019055565b6000546001600160a01b0316331461128a5760405162461bcd60e51b815260040161025c90612f98565b601054600160e01b900460ff16156112b45760405162461bcd60e51b815260040161025c90613123565b601054600160e81b900460ff1661130d5760405162461bcd60e51b815260206004820181905260248201527f4f6365616e5369783732313a20417274206973206e6f742072657665616c6564604482015260640161025c565b6010805460ff60e01b1916600160e01b179055565b610b463383836120ea565b6000546001600160a01b031633146113575760405162461bcd60e51b815260040161025c90612f98565b601054600160e81b900460ff16156113815760405162461bcd60e51b815260040161025c90612fcd565b6010805460ff60e81b1916600160e81b179055565b6000546001600160a01b031633146113c05760405162461bcd60e51b815260040161025c90612f98565b600082116114095760405162461bcd60e51b815260206004820152601660248201527504f6365616e5369783732313a207261746520697320360541b604482015260640161025c565b82600181111561141b5761141b612f04565b600b5460ff16600181111561143257611432612f04565b0361148d5760405162461bcd60e51b815260206004820152602560248201527f4f6365616e5369783732313a2050686173652063616e6e6f74206265207468656044820152642073616d6560d81b606482015260840161025c565b600b805484919060ff1916600183818111156114ab576114ab612f04565b02179055506010805467ffffffff00000000191664010000000063ffffffff8416021790556114d982610fcb565b600b5463ffffffff821690839060ff1660018111156114fa576114fa612f04565b6040517fecad27a1e35f82d4ecdff46aa33d2056ea6b2ed107948be8d68c5cd63fc9fea890600090a4505050565b6115323383611c44565b61154e5760405162461bcd60e51b815260040161025c906130d2565b61155a848484846121b8565b50505050565b601054606090600160e81b900460ff16611604576009805461158190612f5e565b80601f01602080910402602001604051908101604052809291908181526020018280546115ad90612f5e565b80156115fa5780601f106115cf576101008083540402835291602001916115fa565b820191906000526020600020905b8154815290600101906020018083116115dd57829003601f168201915b50505050506107ec565b61160d826121eb565b600a604051602001611620929190613192565b60405160208183030381529060405292915050565b6000546001600160a01b0316331461165f5760405162461bcd60e51b815260040161025c90612f98565b6001600160a01b0381166116d25760405162461bcd60e51b815260206004820152603460248201527f4f6365616e5369783732313a204d696e74696e672062656e656669636961727960448201527302063616e6e6f74206265206164647265737320360641b606482015260840161025c565b6010546001600160a01b03600160401b90910481169082160361175d5760405162461bcd60e51b815260206004820152603760248201527f4f6365616e5369783732313a2062656e65666963696172792063616e6e6f742060448201527f6265207468652073616d652061732070726576696f7573000000000000000000606482015260840161025c565b601080546001600160a01b03909216600160401b0268010000000000000000600160e01b0319909216919091179055565b60075460ff16156117b15760405162461bcd60e51b815260040161025c90613168565b346001600160a01b0384166118085760405162461bcd60e51b815260206004820181905260248201527f4f6365616e5369783732313a20416464726573732063616e6e6f742062652030604482015260640161025c565b600b5461185f9063ffffffff851690600e9060009060ff16600181111561183157611831612f04565b600181111561184257611842612f04565b8152602001908152602001600020546122c590919063ffffffff16565b81146118c55760405162461bcd60e51b815260206004820152602f60248201527f4f6365616e5369783732313a2045746865722073656e74206973206e6f74207460448201526e1a19481c9a59da1d08185b5bdd5b9d608a1b606482015260840161025c565b6118ce83610e81565b506000600b5460ff1660018111156118e8576118e8612f04565b03611983576118f6826122d1565b50611901848461237e565b50600b5463ffffffff841690600f9060009060ff16600181111561192757611927612f04565b600181111561193857611938612f04565b81526020019081526020016000206000866001600160a01b03166001600160a01b03168152602001908152602001600020600082825461197891906131cf565b90915550611a0a9050565b61198d848461237e565b50600b5463ffffffff841690600f9060009060ff1660018111156119b3576119b3612f04565b60018111156119c4576119c4612f04565b81526020019081526020016000206000866001600160a01b03166001600160a01b031681526020019081526020016000206000828254611a0491906131cf565b90915550505b825b63ffffffff811615611a7c57611a2585611216600c5490565b600c546040516001600160a01b038716907f30385c845b448a36257a6a1716e6ad2e1bc2cbe333cde1e69fe849ad6511adfe90600090a3611a6a600c80546001019055565b80611a74816131e7565b915050611a0c565b5061155a81612457565b6000546001600160a01b03163314611ab05760405162461bcd60e51b815260040161025c90612f98565b600d548103611b1d5760405162461bcd60e51b815260206004820152603360248201527f4f6365616e5369783732313a204d65726b6c6520726f6f742063616e6e6f742060448201527262652073616d652061732070726576696f757360681b606482015260840161025c565b600d55565b6000546001600160a01b03163314611b4c5760405162461bcd60e51b815260040161025c90612f98565b6001600160a01b038116611bb15760405162461bcd60e51b815260206004820152602660248201527f4f776e61626c653a206e6577206f776e657220697320746865207a65726f206160448201526564647265737360d01b606482015260840161025c565b610d7981612028565b80546001019055565b600081815260056020526040902080546001600160a01b0319166001600160a01b0384169081179091558190611bf882610e0a565b6001600160a01b03167f8c5be1e5ebec7d5bd14f71427d1e84f3dd0314c0f7b2291e5b200ac8c7c3b92560405160405180910390a45050565b6000611c3d8284613207565b9392505050565b6000818152600360205260408120546001600160a01b0316611cbd5760405162461bcd60e51b815260206004820152602c60248201527f4552433732313a206f70657261746f7220717565727920666f72206e6f6e657860448201526b34b9ba32b73a103a37b5b2b760a11b606482015260840161025c565b6000611cc883610e0a565b9050806001600160a01b0316846001600160a01b03161480611d035750836001600160a01b0316611cf884610884565b6001600160a01b0316145b80611d3357506001600160a01b0380821660009081526006602090815260408083209388168352929052205460ff165b949350505050565b826001600160a01b0316611d4e82610e0a565b6001600160a01b031614611db25760405162461bcd60e51b815260206004820152602560248201527f4552433732313a207472616e736665722066726f6d20696e636f72726563742060448201526437bbb732b960d91b606482015260840161025c565b6001600160a01b038216611e145760405162461bcd60e51b8152602060048201526024808201527f4552433732313a207472616e7366657220746f20746865207a65726f206164646044820152637265737360e01b606482015260840161025c565b611e1f83838361250d565b611e2a600082611bc3565b6001600160a01b0383166000908152600460205260408120805460019290611e53908490613207565b90915550506001600160a01b0382166000908152600460205260408120805460019290611e819084906131cf565b909155505060008181526003602052604080822080546001600160a01b0319166001600160a01b0386811691821790925591518493918716917fddf252ad1be2c89b69c2b068fc378daa952ba7f163c4a11628f55a4df523b3ef91a4505050565b60075460ff16611f2b5760405162461bcd60e51b815260206004820152601460248201527314185d5cd8589b194e881b9bdd081c185d5cd95960621b604482015260640161025c565b6007805460ff191690557f5db9ee0a495bf2e6ff9c91a7834c1ba4fdd244a5e8aa4e537bd38aeae4b073aa335b6040516001600160a01b03909116815260200160405180910390a1565b6000611f8082610e0a565b9050611f8e8160008461250d565b611f99600083611bc3565b6001600160a01b0381166000908152600460205260408120805460019290611fc2908490613207565b909155505060008281526003602052604080822080546001600160a01b0319169055518391906001600160a01b038416907fddf252ad1be2c89b69c2b068fc378daa952ba7f163c4a11628f55a4df523b3ef908390a45050565b6000611c3d82846131cf565b600080546001600160a01b038381166001600160a01b0319831681178455604051919092169283917f8be0079c531659141344cd1fd0a4f28419497f9722a3daafe3b4186f6b6457e09190a35050565b60075460ff161561209b5760405162461bcd60e51b815260040161025c90613168565b6007805460ff191660011790557f62e78cea01bee320cd4e420270b5ea74000d11b0c9f74754ebdbfc544b05a258611f583390565b610b46828260405180602001604052806000815250612518565b816001600160a01b0316836001600160a01b03160361214b5760405162461bcd60e51b815260206004820152601960248201527f4552433732313a20617070726f766520746f2063616c6c657200000000000000604482015260640161025c565b6001600160a01b03838116600081815260066020908152604080832094871680845294825291829020805460ff191686151590811790915591519182527f17307eab39ab6107e8899845ad3d59bd9653f200f220920489ca2b5937696c31910160405180910390a3505050565b6121c3848484611d3b565b6121cf8484848461254b565b61155a5760405162461bcd60e51b815260040161025c9061321e565b6000818152600360205260409020546060906001600160a01b031661226a5760405162461bcd60e51b815260206004820152602f60248201527f4552433732314d657461646174613a2055524920717565727920666f72206e6f60448201526e3732bc34b9ba32b73a103a37b5b2b760891b606482015260840161025c565b600061227461264c565b905060008151116122945760405180602001604052806000815250611c3d565b8061229e8461265b565b6040516020016122af929190613270565b6040516020818303038152906040529392505050565b6000611c3d828461329f565b600d546040516bffffffffffffffffffffffff193360601b166020820152600091612317918491906034016040516020818303038152906040528051906020012061275c565b610f085760405162461bcd60e51b815260206004820152603260248201527f4f6365616e5369783732313a2043616c6c6572206973206e6f742077686974656044820152716c697374656420666f722050726573616c6560701b606482015260840161025c565b601054600b5460009163ffffffff6401000000009091048116916123f691851690600f90859060ff1660018111156123b8576123b8612f04565b60018111156123c9576123c9612f04565b8152602080820192909252604090810160009081206001600160a01b038a1682529092529020549061201c565b111561244e5760405162461bcd60e51b815260206004820152602160248201527f4f434e3a204d6178204e465420706572206164647265737320657863656564656044820152601960fa1b606482015260840161025c565b50600192915050565b601054604051600091600160401b90046001600160a01b03169083908381818185875af1925050503d80600081146124ab576040519150601f19603f3d011682016040523d82523d6000602084013e6124b0565b606091505b5050905080610b465760405162461bcd60e51b8152602060048201526024808201527f4f6365616e5369783732313a204661696c656420746f20666f72776172642066604482015263756e647360e01b606482015260840161025c565b610a29838383612772565b61252283836127d9565b61252f600084848461254b565b610a295760405162461bcd60e51b815260040161025c9061321e565b60006001600160a01b0384163b1561264157604051630a85bd0160e11b81526001600160a01b0385169063150b7a029061258f9033908990889088906004016132be565b6020604051808303816000875af19250505080156125ca575060408051601f3d908101601f191682019092526125c7918101906132fb565b60015b612627573d8080156125f8576040519150601f19603f3d011682016040523d82523d6000602084013e6125fd565b606091505b50805160000361261f5760405162461bcd60e51b815260040161025c9061321e565b805181602001fd5b6001600160e01b031916630a85bd0160e11b149050611d33565b506001949350505050565b60606008805461080190612f5e565b6060816000036126825750506040805180820190915260018152600360fc1b602082015290565b8160005b81156126ac578061269681613318565b91506126a59050600a83613347565b9150612686565b60008167ffffffffffffffff8111156126c7576126c7612b7c565b6040519080825280601f01601f1916602001820160405280156126f1576020820181803683370190505b5090505b8415611d3357612706600183613207565b9150612713600a8661335b565b61271e9060306131cf565b60f81b8183815181106127335761273361336f565b60200101906001600160f81b031916908160001a905350612755600a86613347565b94506126f5565b6000826127698584612927565b14949350505050565b60075460ff1615610a295760405162461bcd60e51b815260206004820152602b60248201527f4552433732315061757361626c653a20746f6b656e207472616e73666572207760448201526a1a1a5b19481c185d5cd95960aa1b606482015260840161025c565b6001600160a01b03821661282f5760405162461bcd60e51b815260206004820181905260248201527f4552433732313a206d696e7420746f20746865207a65726f2061646472657373604482015260640161025c565b6000818152600360205260409020546001600160a01b0316156128945760405162461bcd60e51b815260206004820152601c60248201527f4552433732313a20746f6b656e20616c7265616479206d696e74656400000000604482015260640161025c565b6128a06000838361250d565b6001600160a01b03821660009081526004602052604081208054600192906128c99084906131cf565b909155505060008181526003602052604080822080546001600160a01b0319166001600160a01b03861690811790915590518392907fddf252ad1be2c89b69c2b068fc378daa952ba7f163c4a11628f55a4df523b3ef908290a45050565b600081815b84518110156129935760008582815181106129495761294961336f565b6020026020010151905080831161296f5760008381526020829052604090209250612980565b600081815260208490526040902092505b508061298b81613318565b91505061292c565b509392505050565b8280546129a790612f5e565b90600052602060002090601f0160209004810192826129c95760008555612a0f565b82601f106129e257805160ff1916838001178555612a0f565b82800160010185558215612a0f579182015b82811115612a0f5782518255916020019190600101906129f4565b50612a1b929150612a1f565b5090565b5b80821115612a1b5760008155600101612a20565b6020808252602b908201527f4f6365616e5369783732313a20506c6561736520757365204d696e74206f722060408201526a41646d696e2063616c6c7360a81b606082015260800190565b6001600160e01b031981168114610d7957600080fd5b600060208284031215612aa757600080fd5b8135611c3d81612a7f565b60005b83811015612acd578181015183820152602001612ab5565b8381111561155a5750506000910152565b60008151808452612af6816020860160208601612ab2565b601f01601f19169290920160200192915050565b602081526000611c3d6020830184612ade565b600060208284031215612b2f57600080fd5b5035919050565b80356001600160a01b0381168114612b4d57600080fd5b919050565b60008060408385031215612b6557600080fd5b612b6e83612b36565b946020939093013593505050565b634e487b7160e01b600052604160045260246000fd5b604051601f8201601f1916810167ffffffffffffffff81118282101715612bbb57612bbb612b7c565b604052919050565b600067ffffffffffffffff831115612bdd57612bdd612b7c565b612bf0601f8401601f1916602001612b92565b9050828152838383011115612c0457600080fd5b828260208301376000602084830101529392505050565b600060208284031215612c2d57600080fd5b813567ffffffffffffffff811115612c4457600080fd5b8201601f81018413612c5557600080fd5b611d3384823560208401612bc3565b600080600060608486031215612c7957600080fd5b612c8284612b36565b9250612c9060208501612b36565b9150604084013590509250925092565b803563ffffffff81168114612b4d57600080fd5b600060208284031215612cc657600080fd5b611c3d82612ca0565b600060208284031215612ce157600080fd5b611c3d82612b36565b803560028110612b4d57600080fd5b600060208284031215612d0b57600080fd5b611c3d82612cea565b60008060408385031215612d2757600080fd5b612d3083612b36565b9150612d3e60208401612b36565b90509250929050565b60008060408385031215612d5a57600080fd5b612d6383612b36565b915060208301358015158114612d7857600080fd5b809150509250929050565b600080600060608486031215612d9857600080fd5b612da184612cea565b925060208401359150612db660408501612ca0565b90509250925092565b60008060008060808587031215612dd557600080fd5b612dde85612b36565b9350612dec60208601612b36565b925060408501359150606085013567ffffffffffffffff811115612e0f57600080fd5b8501601f81018713612e2057600080fd5b612e2f87823560208401612bc3565b91505092959194509250565b600080600060608486031215612e5057600080fd5b612e5984612b36565b92506020612e68818601612ca0565b9250604085013567ffffffffffffffff80821115612e8557600080fd5b818701915087601f830112612e9957600080fd5b813581811115612eab57612eab612b7c565b8060051b9150612ebc848301612b92565b818152918301840191848101908a841115612ed657600080fd5b938501935b83851015612ef457843582529385019390850190612edb565b8096505050505050509250925092565b634e487b7160e01b600052602160045260246000fd5b6020810160028310612f3c57634e487b7160e01b600052602160045260246000fd5b91905290565b60008060408385031215612f5557600080fd5b612d3083612cea565b600181811c90821680612f7257607f821691505b602082108103612f9257634e487b7160e01b600052602260045260246000fd5b50919050565b6020808252818101527f4f776e61626c653a2063616c6c6572206973206e6f7420746865206f776e6572604082015260600190565b60208082526024908201527f4f6365616e5369783732313a2041727420697320616c72656164792072657665604082015263185b195960e21b606082015260800190565b8054600090600181811c908083168061302b57607f831692505b6020808410820361304c57634e487b7160e01b600052602260045260246000fd5b81801561306057600181146130715761309e565b60ff1986168952848901965061309e565b60008881526020902060005b868110156130965781548b82015290850190830161307d565b505084890196505b50505050505092915050565b6000611c3d8284613011565b600082516130c8818460208701612ab2565b9190910192915050565b60208082526031908201527f4552433732313a207472616e736665722063616c6c6572206973206e6f74206f6040820152701ddb995c881b9bdc88185c1c1c9bdd9959607a1b606082015260800190565b60208082526025908201527f4f6365616e5369783732313a204d65746164617461205552497320617265206c6040820152641bd8dad95960da1b606082015260800190565b60208082526010908201526f14185d5cd8589b194e881c185d5cd95960821b604082015260600190565b600083516131a4818460208801612ab2565b6131b081840185613011565b95945050505050565b634e487b7160e01b600052601160045260246000fd5b600082198211156131e2576131e26131b9565b500190565b600063ffffffff8216806131fd576131fd6131b9565b6000190192915050565b600082821015613219576132196131b9565b500390565b60208082526032908201527f4552433732313a207472616e7366657220746f206e6f6e20455243373231526560408201527131b2b4bb32b91034b6b83632b6b2b73a32b960711b606082015260800190565b60008351613282818460208801612ab2565b835190830190613296818360208801612ab2565b01949350505050565b60008160001904831182151516156132b9576132b96131b9565b500290565b6001600160a01b03858116825284166020820152604081018390526080606082018190526000906132f190830184612ade565b9695505050505050565b60006020828403121561330d57600080fd5b8151611c3d81612a7f565b60006001820161332a5761332a6131b9565b5060010190565b634e487b7160e01b600052601260045260246000fd5b60008261335657613356613331565b500490565b60008261336a5761336a613331565b500690565b634e487b7160e01b600052603260045260246000fdfea264697066735822122082d3db0606aa3e704578f8146101637cf710d64fc5274d5f87fa40787bf8499a64736f6c634300080d0033",
  "immutableReferences": {},
  "source": "// SPDX-License-Identifier: MIT\r\npragma solidity ^0.8.0;\r\n\r\n/// @notice ERC721\r\nimport \"../node_modules/@openzeppelin/contracts/token/ERC721/ERC721.sol\";\r\nimport \"../node_modules/@openzeppelin/contracts/token/ERC721/extensions/ERC721Burnable.sol\";\r\nimport \"../node_modules/@openzeppelin/contracts/token/ERC721/extensions/ERC721Pausable.sol\";\r\n\r\n/// @notice peripheral\r\nimport \"../node_modules/@openzeppelin/contracts/access/Ownable.sol\";\r\n\r\n/// @notice libraries\r\nimport \"../node_modules/@openzeppelin/contracts/utils/cryptography/MerkleProof.sol\";\r\nimport \"../node_modules/@openzeppelin/contracts/utils/math/SafeMath.sol\";\r\nimport \"../node_modules/@openzeppelin/contracts/utils/Counters.sol\";\r\n\r\n/* \r\n    @title Ocean6\r\n    @notice ERC721-ready OceanSix721 contract\r\n    @author cryptoware.eth | Ocean6\r\n*/\r\n\r\ncontract OceanSix721 is Ownable, ERC721, ERC721Burnable, ERC721Pausable {\r\n    /// @notice using safe math for uints (uints might cause an overflow ==> reverts transaction when an oveflow occurs!)\r\n    using SafeMath for uint256;\r\n    using SafeMath for uint32;\r\n\r\n    /// @notice using Strings for uints conversions such as => tokenId\r\n    using Strings for uint256;\r\n\r\n    /// @notice using Address for addresses extended functionality\r\n    using Address for address;\r\n\r\n    /// @notice using MerkleProof library to verify Merkle proofs\r\n    using MerkleProof for bytes32[];\r\n\r\n    /// @notice using a counter to increment next Id to be minted\r\n    using Counters for Counters.Counter;\r\n\r\n    /// @notice Enum representing the minting phases\r\n    enum Phase {\r\n        Presale, \r\n        Public\r\n    }\r\n\r\n    /// @notice EIP721-required Base URI\r\n    /// This is a Uniform Resource Identifier, distinct used to identify each unique nft from the other. \r\n    string private _baseTokenURI;\r\n\r\n    /// @notice URI to hide NFTS during minting \r\n    string public _notRevealedURI;\r\n\r\n    /// @notice Base extension for metadata\r\n    string private _baseExtension;\r\n\r\n    /// @notice the current phase of the minting \r\n    Phase private _phase;\r\n\r\n    /// @notice token id to be minted next\r\n    Counters.Counter private _tokenIdTracker;\r\n\r\n    /// @notice root of the Merkle tree\r\n    bytes32 private _merkleRoot;\r\n\r\n    /// @notice The rate of minting per phase\r\n    mapping(Phase => uint256) public _mintPrice;\r\n\r\n    /// @notice The rate of mints per user\r\n    mapping(Phase => mapping(address => uint256)) public _mintsPerUser;\r\n\r\n    /// @notice Max number of NFTs to be minted\r\n    uint32 private _maxTokenId;\r\n\r\n    /// @notice max amount of nfts that can be minted per wallet address\r\n    uint32 private _mintingLimit;\r\n\r\n    /// @notice Splitter Contract that will collect mint fees;\r\n    address payable private _mintingBeneficiary;\r\n\r\n    /// @notice public metadata locked flag\r\n    bool public locked;\r\n\r\n    /// @notice public revealed state\r\n    bool public revealed;\r\n\r\n    /// @notice Minting events definition\r\n    event AdminMinted(address indexed to, uint indexed tokenId);\r\n    event Minted(address indexed to, uint indexed tokenId);\r\n\r\n    /// @notice Event published when a phase is triggered \r\n    /// @param phase next minting phase\r\n    /// @param mintCost minting cost in next phase \r\n    /// @param mintingLimit minting limit per wallet address\r\n\r\n    event PhaseTriggered(Phase indexed phase, uint256 indexed mintCost, uint indexed mintingLimit);\r\n\r\n    /// @notice metadata not locked modifier\r\n    /// Require function, the first parameter is the condition, if it is not met, then the second parameter is will be outputed\r\n    modifier notLocked(){\r\n        require(!locked, \"OceanSix721: Metadata URIs are locked\");\r\n        /// The uncommon instruction specified where the function should be executed\r\n        _;\r\n    }\r\n\r\n    /// @notice Art is not revealed modifier\r\n    modifier notRevealed() {\r\n        require(!revealed, \"OceanSix721: Art is already revealed\");\r\n        _;\r\n    }\r\n\r\n    /// @notice Art is already revealed\r\n    modifier Revealed() {\r\n        require(revealed, \"OceanSix721: Art is not revealed\");\r\n        _;\r\n    }\r\n\r\n    /// @notice constructor \r\n    /// @param name the name of the EIP721 contract\r\n    /// @param symbol the token symbol\r\n    /// @param baseTokenURI EIP721-required Base URI\r\n    /// @param notRevealedURI URI ot hide NFTs during minting\r\n    /// @param merkleRoot merkle tree root of the hashed whitelist addresses\r\n    /// @param mbeneficiary the contract splitter that will receive minting funds\r\n\r\n    constructor(\r\n        string memory name, \r\n        string memory symbol,\r\n        string memory baseTokenURI,\r\n        string memory notRevealedURI,\r\n        bytes32 merkleRoot,\r\n        address mbeneficiary\r\n    ) ERC721(name, symbol) Ownable() {\r\n        _phase = Phase.Presale;\r\n        _mintPrice[_phase] = 0.01 ether;\r\n\r\n        _mintingLimit = 3;\r\n        _maxTokenId = 22;\r\n\r\n        _merkleRoot = merkleRoot;\r\n        _baseExtension = \".json\";\r\n        _baseTokenURI = baseTokenURI;\r\n        _notRevealedURI = notRevealedURI;\r\n        _mintingBeneficiary = payable(mbeneficiary);\r\n        _tokenIdTracker.increment();\r\n    }\r\n\r\n    /// @notice receive fallback should revert \r\n    /// @notice receive payement address without any minting.\r\n\r\n    receive() external payable {\r\n        revert(\"OceanSix721: Please use Mint or Admin calls\");\r\n    }\r\n\r\n    /// @notice default fallback should revert\r\n    fallback() external payable {\r\n        revert(\"OceanSix721: Please use Mint or Admin calls\");\r\n    }\r\n\r\n    /// @notice returnd the base URI for the contract\r\n    function _baseURI() internal view virtual override returns (string memory) {\r\n        return _baseTokenURI;\r\n    }\r\n\r\n    /// @dev See {IERC721Metadata-tokenURI}\r\n    function tokenURI(uint256 tokenId)\r\n        public\r\n        view\r\n        virtual\r\n        override\r\n        returns (string memory)\r\n    {\r\n        return revealed ?\r\n            string(abi.encodePacked(super.tokenURI(tokenId), _baseExtension)): _notRevealedURI;\r\n    }\r\n\r\n    /// @notice updates the 2 addresses involved in the contract flow\r\n    /// @param mintingBeneficiary the contract Splitter that will receive minting and royalties funds\r\n    /// @param _owner the new admin address\r\n\r\n    function updateAddressesAndTransferOwnership(\r\n        address mintingBeneficiary,\r\n        address _owner\r\n    ) public onlyOwner {\r\n        changeMintBeneficiary(mintingBeneficiary);\r\n        transferOwnership(_owner);\r\n    }\r\n\r\n    /// @notice changes the minting beneficiary payable address\r\n    /// @notice beneficiary the contract Splitter that will receive minting funds\r\n\r\n    /**\r\n     * @notice a function for admins to mint cost-free\r\n     * @param to the address to send the minted token to\r\n    **/\r\n\r\n    function adminMint(address to) external whenNotPaused onlyOwner {\r\n        require (to != address(0), \"OceanSix721: Address cannot be 0\");\r\n        maxSupplyNotExceeded(1);\r\n        _safeMint(to, _tokenIdTracker.current());\r\n        emit AdminMinted(to, _tokenIdTracker.current());\r\n        _tokenIdTracker.increment();\r\n    }\r\n\r\n    /// @notice the public minting function -- requires 1 ether sent \r\n    /// @param to the address to send the minted token to\r\n    /// @param amount amount of tokens to mint\r\n    /// @param _proof verify if msg.sender is whitelisted whenever presale\r\n\r\n    function mint(address to, uint32 amount, bytes32[] memory _proof)\r\n        external\r\n        payable\r\n        whenNotPaused\r\n    {\r\n        uint256 received = msg.value;\r\n        require(to != address(0), \"OceanSix721: Address cannot be 0\");\r\n        require(\r\n            received == _mintPrice[_phase].mul(amount), \"OceanSix721: Ether sent is not the right amount\"\r\n        );\r\n\r\n        maxSupplyNotExceeded(amount);\r\n\r\n        if(_phase == Phase.Presale){\r\n            // require (amount <= _mintingLimit, \"OceanSix721: Allowed amount to mint exceeded\");\r\n            isAllowedToMint(_proof);\r\n            // walletLimitNotExceeded(to, amount);\r\n            checkLimit(to, amount);\r\n            _mintsPerUser[_phase][to]+=amount;\r\n        } else {\r\n            checkLimit(to, amount);\r\n            _mintsPerUser[_phase][to]+=amount;\r\n            // require(amount <= _mintingLimit, \"OceanSix721: Allowed amount to mint exceeded\");\r\n            // walletLimitNotExceeded(to, amount);\r\n        }\r\n        for(uint32 i=amount; i>0; i--){\r\n            _safeMint(to, _tokenIdTracker.current());\r\n            emit Minted(to, _tokenIdTracker.current());\r\n            _tokenIdTracker.increment();\r\n        }\r\n\r\n        _forwardFunds(received);\r\n    }    \r\n\r\n    /// @notice pausing the cotract minting and token transfer\r\n    function pause() public virtual onlyOwner{\r\n        _pause();\r\n    }\r\n\r\n    /// @notice unpausing the contract minting and token transfer\r\n    function unpause() public virtual onlyOwner{\r\n        _unpause();\r\n    }\r\n\r\n    function changeMintBeneficiary(address beneficiary) public onlyOwner {\r\n        require(\r\n            beneficiary != address(0),\r\n            \"OceanSix721: Minting beneficiary cannot be address 0\"\r\n        );\r\n\r\n        require(\r\n            beneficiary != _mintingBeneficiary,\r\n            \"OceanSix721: beneficiary cannot be the same as previous\"\r\n        );\r\n        _mintingBeneficiary = payable(beneficiary);\r\n    }\r\n\r\n    /// @notice Updates the phase and minting cost \r\n    /// @param phase the phase ID to set next\r\n    /// @param mintCost the cost of minting next phase\r\n    /// @param mintingLimit set limit per wallet address\r\n\r\n    function setPhase(\r\n        Phase phase, \r\n        uint256 mintCost,\r\n        uint32 mintingLimit\r\n    ) public onlyOwner {\r\n        require(mintCost>0, \"OceanSix721: rate is 0\");\r\n        require(_phase != phase, \"OceanSix721: Phase cannot be the same\");\r\n\r\n        /// @notice set phase \r\n        _phase = phase;\r\n        _mintingLimit = mintingLimit;\r\n\r\n        /// @notice set phase cost\r\n        changeMintCost(mintCost);\r\n        emit PhaseTriggered(_phase, mintCost, mintingLimit);\r\n    }\r\n\r\n    /// @notice gets the current phase of the minting\r\n    function getPhase() public view returns (Phase) {\r\n        return _phase;\r\n    }\r\n\r\n    ///@notice gets the amounts of mints per wallet address\r\n    function getMintingLimit() public view returns (uint256) {\r\n        return _mintingLimit;\r\n    }\r\n\r\n    /// @notice changes the minting cost \r\n    /// @param mintCost new minting cost\r\n\r\n    function changeMintCost(uint256 mintCost) public onlyOwner {\r\n        require(\r\n            mintCost != _mintPrice[_phase],\r\n            \"OceanSix721: mint cost cannot be same as previous\"\r\n        );\r\n        _mintPrice[_phase] = mintCost;\r\n    }\r\n\r\n    function changeBaseURI(string memory newBaseURI)\r\n        public \r\n        onlyOwner\r\n        notLocked\r\n    {\r\n        require((keccak256(abi.encodePacked((_baseTokenURI))) != keccak256(abi.encodePacked((newBaseURI)))), \"OceanSix721: Base URI cannot be same as previous\");\r\n        _baseTokenURI = newBaseURI;\r\n    }\r\n\r\n    /**\r\n     * @notice changes to not revealed URI\r\n     * @param newNotRevealedUri the new notRevealed URI\r\n    **/\r\n    function changeNotRevealedURI(string memory newNotRevealedUri)\r\n        public\r\n        onlyOwner\r\n        notRevealed\r\n    {\r\n        require((keccak256(abi.encodePacked((newNotRevealedUri))) != keccak256(abi.encodePacked((_notRevealedURI)))), \"MPRN721: Base URI cannot be same as previous\");\r\n        _notRevealedURI = newNotRevealedUri;\r\n    }\r\n\r\n    ///@notice reveal NFTs\r\n    function reveal() public onlyOwner notRevealed {\r\n        revealed = true;\r\n    }\r\n\r\n    /// @notice lock metadata forever\r\n    function lockMetadata()\r\n        public \r\n        onlyOwner\r\n        notLocked\r\n        Revealed\r\n    {\r\n        locked = true;\r\n    }\r\n    \r\n    /**\r\n     * @notice changes merkleRoot in case whitelist updated\r\n     * @param merkleRoot root of the Merkle tree\r\n    **/\r\n    function changeMerkleRoot(bytes32 merkleRoot)\r\n        public\r\n        onlyOwner\r\n    {\r\n        require(\r\n            merkleRoot != _merkleRoot, \r\n            \"OceanSix721: Merkle root cannot be same as previous\"\r\n        );\r\n        _merkleRoot = merkleRoot;\r\n    }\r\n\r\n    ///@notice the public function for checking if more tokens can be minted\r\n    function maxSupplyNotExceeded(uint32 amount) public view returns (bool) {\r\n        require(_tokenIdTracker.current().add(amount.sub(1)) <= _maxTokenId, \"OceanSix721: max NFT limit exceeded\");\r\n        return true;\r\n    }\r\n\r\n    /// @notice the public function validating addresses to presale phase\r\n    /// @param _proof hashes validating that a leaf exists inside merkle tree aka _merkleRoot\r\n\r\n    function isAllowedToMint(bytes32[] memory _proof) internal view returns (bool){\r\n        require(\r\n            MerkleProof.verify(_proof, _merkleRoot, keccak256(abi.encodePacked(msg.sender))),\r\n            \"OceanSix721: Caller is not whitelisted for Presale\"\r\n        );\r\n        return true;\r\n    }\r\n\r\n    // /// @notice checks if an address reached limit per wallet\r\n    // /// @param minter address user minting nf\r\n    // /// @param amount nfts amount to mint\r\n\r\n    // function walletLimitNotExceeded(address minter, uint32 amount) internal view returns (bool) {\r\n    //     require(balanceOf(minter).add(amount) <= _mintingLimit, \"OceanSix721: max NFT per address exceeded\");\r\n    //     return true;\r\n    // }\r\n\r\n    /// @notice Current totalSupply\r\n    function totalSupply() external view returns (uint256) {\r\n        return(_tokenIdTracker.current()).sub(1);\r\n    }\r\n\r\n    /// @notice Determines how ETH is stored/forwarded on purchases.\r\n    /// @param received amount to forward\r\n\r\n    function _forwardFunds(uint256 received) internal {\r\n        /// @notice forward fund to Splitter contract using CALL to avoid 2300 stipend limit\r\n        (bool success, ) = _mintingBeneficiary.call{value: received}(\"\");\r\n        require(success, \"OceanSix721: Failed to forward funds\");\r\n    }\r\n\r\n    /// @notice before transfer hook function\r\n    /// @param from the address to send the token from\r\n    /// @param to the address to send the token to\r\n    /// @param tokenId to token ID to be sent\r\n\r\n    function _beforeTokenTransfer(address from, address to, uint256 tokenId) internal virtual override (ERC721, ERC721Pausable) {\r\n        super._beforeTokenTransfer(from, to, tokenId);\r\n    }\r\n\r\n    function checkLimit(address minter, uint32 amount) internal view returns (bool) {\r\n        require(_mintsPerUser[_phase][minter].add(amount)<=_mintingLimit, \"OCN: Max NFT per address exceeded\");\r\n        return true;\r\n    }\r\n\r\n\r\n\r\n\r\n}\r\n\r\n",
  "sourcePath": "C:\\Users\\georg\\OneDrive\\Desktop\\oceans6\\blockend\\contracts\\OceanSix721.sol",
  "compiler": {
    "name": "solc",
    "version": "0.8.13+commit.abaa5c0e.Emscripten.clang"
  },
  "schemaVersion": "3.4.7",
  "updatedAt": "2022-05-06T09:28:21.778Z",
  "devdoc": {
    "events": {
      "PhaseTriggered(uint8,uint256,uint256)": {
        "params": {
          "mintCost": "minting cost in next phase ",
          "mintingLimit": "minting limit per wallet address",
          "phase": "next minting phase"
        }
      }
    },
    "kind": "dev",
    "methods": {
      "adminMint(address)": {
        "params": {
          "to": "the address to send the minted token to*"
        }
      },
      "approve(address,uint256)": {
        "details": "See {IERC721-approve}."
      },
      "balanceOf(address)": {
        "details": "See {IERC721-balanceOf}."
      },
      "burn(uint256)": {
        "details": "Burns `tokenId`. See {ERC721-_burn}. Requirements: - The caller must own `tokenId` or be an approved operator."
      },
      "changeMerkleRoot(bytes32)": {
        "params": {
          "merkleRoot": "root of the Merkle tree*"
        }
      },
      "changeMintCost(uint256)": {
        "params": {
          "mintCost": "new minting cost"
        }
      },
      "changeNotRevealedURI(string)": {
        "params": {
          "newNotRevealedUri": "the new notRevealed URI*"
        }
      },
      "constructor": {
        "params": {
          "baseTokenURI": "EIP721-required Base URI",
          "mbeneficiary": "the contract splitter that will receive minting funds",
          "merkleRoot": "merkle tree root of the hashed whitelist addresses",
          "name": "the name of the EIP721 contract",
          "notRevealedURI": "URI ot hide NFTs during minting",
          "symbol": "the token symbol"
        }
      },
      "getApproved(uint256)": {
        "details": "See {IERC721-getApproved}."
      },
      "isApprovedForAll(address,address)": {
        "details": "See {IERC721-isApprovedForAll}."
      },
      "mint(address,uint32,bytes32[])": {
        "params": {
          "_proof": "verify if msg.sender is whitelisted whenever presale",
          "amount": "amount of tokens to mint",
          "to": "the address to send the minted token to"
        }
      },
      "name()": {
        "details": "See {IERC721Metadata-name}."
      },
      "owner()": {
        "details": "Returns the address of the current owner."
      },
      "ownerOf(uint256)": {
        "details": "See {IERC721-ownerOf}."
      },
      "paused()": {
        "details": "Returns true if the contract is paused, and false otherwise."
      },
      "renounceOwnership()": {
        "details": "Leaves the contract without owner. It will not be possible to call `onlyOwner` functions anymore. Can only be called by the current owner. NOTE: Renouncing ownership will leave the contract without an owner, thereby removing any functionality that is only available to the owner."
      },
      "safeTransferFrom(address,address,uint256)": {
        "details": "See {IERC721-safeTransferFrom}."
      },
      "safeTransferFrom(address,address,uint256,bytes)": {
        "details": "See {IERC721-safeTransferFrom}."
      },
      "setApprovalForAll(address,bool)": {
        "details": "See {IERC721-setApprovalForAll}."
      },
      "setPhase(uint8,uint256,uint32)": {
        "params": {
          "mintCost": "the cost of minting next phase",
          "mintingLimit": "set limit per wallet address",
          "phase": "the phase ID to set next"
        }
      },
      "supportsInterface(bytes4)": {
        "details": "See {IERC165-supportsInterface}."
      },
      "symbol()": {
        "details": "See {IERC721Metadata-symbol}."
      },
      "tokenURI(uint256)": {
        "details": "See {IERC721Metadata-tokenURI}"
      },
      "transferFrom(address,address,uint256)": {
        "details": "See {IERC721-transferFrom}."
      },
      "transferOwnership(address)": {
        "details": "Transfers ownership of the contract to a new account (`newOwner`). Can only be called by the current owner."
      },
      "updateAddressesAndTransferOwnership(address,address)": {
        "params": {
          "_owner": "the new admin address",
          "mintingBeneficiary": "the contract Splitter that will receive minting and royalties funds"
        }
      }
    },
    "version": 1
  },
  "userdoc": {
    "events": {
      "AdminMinted(address,uint256)": {
        "notice": "Minting events definition"
      },
      "PhaseTriggered(uint8,uint256,uint256)": {
        "notice": "Event published when a phase is triggered "
      }
    },
    "kind": "user",
    "methods": {
      "_mintPrice(uint8)": {
        "notice": "The rate of minting per phase"
      },
      "_mintsPerUser(uint8,address)": {
        "notice": "The rate of mints per user"
      },
      "_notRevealedURI()": {
        "notice": "URI to hide NFTS during minting "
      },
      "adminMint(address)": {
        "notice": "a function for admins to mint cost-free"
      },
      "changeMerkleRoot(bytes32)": {
        "notice": "changes merkleRoot in case whitelist updated"
      },
      "changeMintCost(uint256)": {
        "notice": "changes the minting cost "
      },
      "changeNotRevealedURI(string)": {
        "notice": "changes to not revealed URI"
      },
      "constructor": {
        "notice": "constructor "
      },
      "getMintingLimit()": {
        "notice": "gets the amounts of mints per wallet address"
      },
      "getPhase()": {
        "notice": "gets the current phase of the minting"
      },
      "lockMetadata()": {
        "notice": "lock metadata forever"
      },
      "locked()": {
        "notice": "public metadata locked flag"
      },
      "maxSupplyNotExceeded(uint32)": {
        "notice": "the public function for checking if more tokens can be minted"
      },
      "mint(address,uint32,bytes32[])": {
        "notice": "the public minting function -- requires 1 ether sent "
      },
      "pause()": {
        "notice": "pausing the cotract minting and token transfer"
      },
      "reveal()": {
        "notice": "reveal NFTs"
      },
      "revealed()": {
        "notice": "public revealed state"
      },
      "setPhase(uint8,uint256,uint32)": {
        "notice": "Updates the phase and minting cost "
      },
      "totalSupply()": {
        "notice": "Current totalSupply"
      },
      "unpause()": {
        "notice": "unpausing the contract minting and token transfer"
      },
      "updateAddressesAndTransferOwnership(address,address)": {
        "notice": "updates the 2 addresses involved in the contract flow"
      }
    },
    "version": 1
  }
}