{
  "contractName": "PaymentSplitter",
  "abi": [
    {
      "inputs": [
        {
          "internalType": "address[]",
          "name": "payees",
          "type": "address[]"
        },
        {
          "internalType": "uint256[]",
          "name": "shares_",
          "type": "uint256[]"
        }
      ],
      "stateMutability": "payable",
      "type": "constructor"
    },
    {
      "anonymous": false,
      "inputs": [
        {
          "indexed": true,
          "internalType": "contract IERC20",
          "name": "token",
          "type": "address"
        },
        {
          "indexed": false,
          "internalType": "address",
          "name": "to",
          "type": "address"
        },
        {
          "indexed": false,
          "internalType": "uint256",
          "name": "amount",
          "type": "uint256"
        }
      ],
      "name": "ERC20PaymentReleased",
      "type": "event"
    },
    {
      "anonymous": false,
      "inputs": [
        {
          "indexed": false,
          "internalType": "address",
          "name": "account",
          "type": "address"
        },
        {
          "indexed": false,
          "internalType": "uint256",
          "name": "shares",
          "type": "uint256"
        }
      ],
      "name": "PayeeAdded",
      "type": "event"
    },
    {
      "anonymous": false,
      "inputs": [
        {
          "indexed": false,
          "internalType": "address",
          "name": "from",
          "type": "address"
        },
        {
          "indexed": false,
          "internalType": "uint256",
          "name": "amount",
          "type": "uint256"
        }
      ],
      "name": "PaymentReceived",
      "type": "event"
    },
    {
      "anonymous": false,
      "inputs": [
        {
          "indexed": false,
          "internalType": "address",
          "name": "to",
          "type": "address"
        },
        {
          "indexed": false,
          "internalType": "uint256",
          "name": "amount",
          "type": "uint256"
        }
      ],
      "name": "PaymentReleased",
      "type": "event"
    },
    {
      "stateMutability": "payable",
      "type": "receive"
    },
    {
      "inputs": [],
      "name": "totalShares",
      "outputs": [
        {
          "internalType": "uint256",
          "name": "",
          "type": "uint256"
        }
      ],
      "stateMutability": "view",
      "type": "function"
    },
    {
      "inputs": [
        {
          "internalType": "contract IERC20",
          "name": "token",
          "type": "address"
        }
      ],
      "name": "totalReleased",
      "outputs": [
        {
          "internalType": "uint256",
          "name": "",
          "type": "uint256"
        }
      ],
      "stateMutability": "view",
      "type": "function"
    },
    {
      "inputs": [],
      "name": "totalReleased",
      "outputs": [
        {
          "internalType": "uint256",
          "name": "",
          "type": "uint256"
        }
      ],
      "stateMutability": "view",
      "type": "function"
    },
    {
      "inputs": [
        {
          "internalType": "address",
          "name": "account",
          "type": "address"
        }
      ],
      "name": "shares",
      "outputs": [
        {
          "internalType": "uint256",
          "name": "",
          "type": "uint256"
        }
      ],
      "stateMutability": "view",
      "type": "function"
    },
    {
      "inputs": [
        {
          "internalType": "contract IERC20",
          "name": "token",
          "type": "address"
        },
        {
          "internalType": "address",
          "name": "account",
          "type": "address"
        }
      ],
      "name": "released",
      "outputs": [
        {
          "internalType": "uint256",
          "name": "",
          "type": "uint256"
        }
      ],
      "stateMutability": "view",
      "type": "function"
    },
    {
      "inputs": [
        {
          "internalType": "address",
          "name": "account",
          "type": "address"
        }
      ],
      "name": "released",
      "outputs": [
        {
          "internalType": "uint256",
          "name": "",
          "type": "uint256"
        }
      ],
      "stateMutability": "view",
      "type": "function"
    },
    {
      "inputs": [
        {
          "internalType": "uint256",
          "name": "index",
          "type": "uint256"
        }
      ],
      "name": "payee",
      "outputs": [
        {
          "internalType": "address",
          "name": "",
          "type": "address"
        }
      ],
      "stateMutability": "view",
      "type": "function"
    },
    {
      "inputs": [
        {
          "internalType": "address payable",
          "name": "account",
          "type": "address"
        }
      ],
      "name": "release",
      "outputs": [],
      "stateMutability": "nonpayable",
      "type": "function"
    },
    {
      "inputs": [
        {
          "internalType": "contract IERC20",
          "name": "token",
          "type": "address"
        },
        {
          "internalType": "address",
          "name": "account",
          "type": "address"
        }
      ],
      "name": "release",
      "outputs": [],
      "stateMutability": "nonpayable",
      "type": "function"
    }
  ],
  "bytecode": "0x6080604052604051620011603803806200116083398101604081905262000026916200042e565b8051825114620000985760405162461bcd60e51b815260206004820152603260248201527f5061796d656e7453706c69747465723a2070617965657320616e6420736861726044820152710cae640d8cadccee8d040dad2e6dac2e8c6d60731b60648201526084015b60405180910390fd5b6000825111620000eb5760405162461bcd60e51b815260206004820152601a60248201527f5061796d656e7453706c69747465723a206e6f2070617965657300000000000060448201526064016200008f565b60005b82518110156200015757620001428382815181106200011157620001116200050c565b60200260200101518383815181106200012e576200012e6200050c565b60200260200101516200016060201b60201c565b806200014e8162000538565b915050620000ee565b5050506200056f565b6001600160a01b038216620001cd5760405162461bcd60e51b815260206004820152602c60248201527f5061796d656e7453706c69747465723a206163636f756e74206973207468652060448201526b7a65726f206164647265737360a01b60648201526084016200008f565b600081116200021f5760405162461bcd60e51b815260206004820152601d60248201527f5061796d656e7453706c69747465723a2073686172657320617265203000000060448201526064016200008f565b6001600160a01b038216600090815260026020526040902054156200029b5760405162461bcd60e51b815260206004820152602b60248201527f5061796d656e7453706c69747465723a206163636f756e7420616c726561647960448201526a206861732073686172657360a81b60648201526084016200008f565b60048054600181019091557f8a35acfbc15ff81a39ae7d344fd709f28e8600b4aa8c65c6b64bfe7fe36bd19b0180546001600160a01b0319166001600160a01b0384169081179091556000908152600260205260408120829055546200030390829062000554565b600055604080516001600160a01b0384168152602081018390527f40c340f65e17194d14ddddb073d3c9f888e3cb52b5aae0c6c7706b4fbc905fac910160405180910390a15050565b634e487b7160e01b600052604160045260246000fd5b604051601f8201601f191681016001600160401b03811182821017156200038d576200038d6200034c565b604052919050565b60006001600160401b03821115620003b157620003b16200034c565b5060051b60200190565b600082601f830112620003cd57600080fd5b81516020620003e6620003e08362000395565b62000362565b82815260059290921b840181019181810190868411156200040657600080fd5b8286015b848110156200042357805183529183019183016200040a565b509695505050505050565b600080604083850312156200044257600080fd5b82516001600160401b03808211156200045a57600080fd5b818501915085601f8301126200046f57600080fd5b8151602062000482620003e08362000395565b82815260059290921b84018101918181019089841115620004a257600080fd5b948201945b83861015620004d95785516001600160a01b0381168114620004c95760008081fd5b82529482019490820190620004a7565b91880151919650909350505080821115620004f357600080fd5b506200050285828601620003bb565b9150509250929050565b634e487b7160e01b600052603260045260246000fd5b634e487b7160e01b600052601160045260246000fd5b6000600182016200054d576200054d62000522565b5060010190565b600082198211156200056a576200056a62000522565b500190565b610be1806200057f6000396000f3fe60806040526004361061008a5760003560e01c80638b83209b116100595780638b83209b146101845780639852595c146101bc578063ce7c2ac2146101f2578063d79779b214610228578063e33b7de31461025e57600080fd5b806319165587146100d85780633a98ef39146100fa578063406072a91461011e57806348b750441461016457600080fd5b366100d3577f6ef95f06320e7a25a04a175ca677b7052bdd97131872c2192525a629f51be77033604080516001600160a01b0390921682523460208301520160405180910390a1005b600080fd5b3480156100e457600080fd5b506100f86100f3366004610955565b610273565b005b34801561010657600080fd5b506000545b6040519081526020015b60405180910390f35b34801561012a57600080fd5b5061010b610139366004610972565b6001600160a01b03918216600090815260066020908152604080832093909416825291909152205490565b34801561017057600080fd5b506100f861017f366004610972565b6103ad565b34801561019057600080fd5b506101a461019f3660046109ab565b610589565b6040516001600160a01b039091168152602001610115565b3480156101c857600080fd5b5061010b6101d7366004610955565b6001600160a01b031660009081526003602052604090205490565b3480156101fe57600080fd5b5061010b61020d366004610955565b6001600160a01b031660009081526002602052604090205490565b34801561023457600080fd5b5061010b610243366004610955565b6001600160a01b031660009081526005602052604090205490565b34801561026a57600080fd5b5060015461010b565b6001600160a01b0381166000908152600260205260409020546102b15760405162461bcd60e51b81526004016102a8906109c4565b60405180910390fd5b60006102bc60015490565b6102c69047610a20565b905060006102f383836102ee866001600160a01b031660009081526003602052604090205490565b6105b9565b9050806000036103155760405162461bcd60e51b81526004016102a890610a38565b6001600160a01b0383166000908152600360205260408120805483929061033d908490610a20565b9250508190555080600160008282546103569190610a20565b90915550610366905083826105fe565b604080516001600160a01b0385168152602081018390527fdf20fd1e76bc69d672e4814fafb2c449bba3a5369d8359adf9e05e6fde87b056910160405180910390a1505050565b6001600160a01b0381166000908152600260205260409020546103e25760405162461bcd60e51b81526004016102a8906109c4565b6001600160a01b0382166000908152600560205260408120546040516370a0823160e01b81523060048201526001600160a01b038516906370a0823190602401602060405180830381865afa15801561043f573d6000803e3d6000fd5b505050506040513d601f19601f820116820180604052508101906104639190610a83565b61046d9190610a20565b905060006104a683836102ee87876001600160a01b03918216600090815260066020908152604080832093909416825291909152205490565b9050806000036104c85760405162461bcd60e51b81526004016102a890610a38565b6001600160a01b038085166000908152600660209081526040808320938716835292905290812080548392906104ff908490610a20565b90915550506001600160a01b0384166000908152600560205260408120805483929061052c908490610a20565b9091555061053d905084848361071c565b604080516001600160a01b038581168252602082018490528616917f3be5b7a71e84ed12875d241991c70855ac5817d847039e17a9d895c1ceb0f18a910160405180910390a250505050565b60006004828154811061059e5761059e610a9c565b6000918252602090912001546001600160a01b031692915050565b600080546001600160a01b0385168252600260205260408220548391906105e09086610ab2565b6105ea9190610ad1565b6105f49190610af3565b90505b9392505050565b8047101561064e5760405162461bcd60e51b815260206004820152601d60248201527f416464726573733a20696e73756666696369656e742062616c616e636500000060448201526064016102a8565b6000826001600160a01b03168260405160006040518083038185875af1925050503d806000811461069b576040519150601f19603f3d011682016040523d82523d6000602084013e6106a0565b606091505b50509050806107175760405162461bcd60e51b815260206004820152603a60248201527f416464726573733a20756e61626c6520746f2073656e642076616c75652c207260448201527f6563697069656e74206d6179206861766520726576657274656400000000000060648201526084016102a8565b505050565b604080516001600160a01b03848116602483015260448083018590528351808403909101815260649092018352602080830180516001600160e01b031663a9059cbb60e01b17905283518085019094528084527f5361666545524332303a206c6f772d6c6576656c2063616c6c206661696c656490840152610717928692916000916107ac918516908490610829565b80519091501561071757808060200190518101906107ca9190610b0a565b6107175760405162461bcd60e51b815260206004820152602a60248201527f5361666545524332303a204552433230206f7065726174696f6e20646964206e6044820152691bdd081cdd58d8d9595960b21b60648201526084016102a8565b60606105f48484600085856001600160a01b0385163b61088b5760405162461bcd60e51b815260206004820152601d60248201527f416464726573733a2063616c6c20746f206e6f6e2d636f6e747261637400000060448201526064016102a8565b600080866001600160a01b031685876040516108a79190610b5c565b60006040518083038185875af1925050503d80600081146108e4576040519150601f19603f3d011682016040523d82523d6000602084013e6108e9565b606091505b50915091506108f9828286610904565b979650505050505050565b606083156109135750816105f7565b8251156109235782518084602001fd5b8160405162461bcd60e51b81526004016102a89190610b78565b6001600160a01b038116811461095257600080fd5b50565b60006020828403121561096757600080fd5b81356105f78161093d565b6000806040838503121561098557600080fd5b82356109908161093d565b915060208301356109a08161093d565b809150509250929050565b6000602082840312156109bd57600080fd5b5035919050565b60208082526026908201527f5061796d656e7453706c69747465723a206163636f756e7420686173206e6f2060408201526573686172657360d01b606082015260800190565b634e487b7160e01b600052601160045260246000fd5b60008219821115610a3357610a33610a0a565b500190565b6020808252602b908201527f5061796d656e7453706c69747465723a206163636f756e74206973206e6f742060408201526a191d59481c185e5b595b9d60aa1b606082015260800190565b600060208284031215610a9557600080fd5b5051919050565b634e487b7160e01b600052603260045260246000fd5b6000816000190483118215151615610acc57610acc610a0a565b500290565b600082610aee57634e487b7160e01b600052601260045260246000fd5b500490565b600082821015610b0557610b05610a0a565b500390565b600060208284031215610b1c57600080fd5b815180151581146105f757600080fd5b60005b83811015610b47578181015183820152602001610b2f565b83811115610b56576000848401525b50505050565b60008251610b6e818460208701610b2c565b9190910192915050565b6020815260008251806020840152610b97816040850160208701610b2c565b601f01601f1916919091016040019291505056fea2646970667358221220a68c25034a61e785559ee093d12c91f2f2bf73759731ffb683e234c1e0d5abd464736f6c634300080d0033",
  "immutableReferences": {},
  "source": "// SPDX-License-Identifier: MIT\n// OpenZeppelin Contracts v4.4.1 (finance/PaymentSplitter.sol)\n\npragma solidity ^0.8.0;\n\nimport \"../token/ERC20/utils/SafeERC20.sol\";\nimport \"../utils/Address.sol\";\nimport \"../utils/Context.sol\";\n\n/**\n * @title PaymentSplitter\n * @dev This contract allows to split Ether payments among a group of accounts. The sender does not need to be aware\n * that the Ether will be split in this way, since it is handled transparently by the contract.\n *\n * The split can be in equal parts or in any other arbitrary proportion. The way this is specified is by assigning each\n * account to a number of shares. Of all the Ether that this contract receives, each account will then be able to claim\n * an amount proportional to the percentage of total shares they were assigned.\n *\n * `PaymentSplitter` follows a _pull payment_ model. This means that payments are not automatically forwarded to the\n * accounts but kept in this contract, and the actual transfer is triggered as a separate step by calling the {release}\n * function.\n *\n * NOTE: This contract assumes that ERC20 tokens will behave similarly to native tokens (Ether). Rebasing tokens, and\n * tokens that apply fees during transfers, are likely to not be supported as expected. If in doubt, we encourage you\n * to run tests before sending real value to this contract.\n */\ncontract PaymentSplitter is Context {\n    event PayeeAdded(address account, uint256 shares);\n    event PaymentReleased(address to, uint256 amount);\n    event ERC20PaymentReleased(IERC20 indexed token, address to, uint256 amount);\n    event PaymentReceived(address from, uint256 amount);\n\n    uint256 private _totalShares;\n    uint256 private _totalReleased;\n\n    mapping(address => uint256) private _shares;\n    mapping(address => uint256) private _released;\n    address[] private _payees;\n\n    mapping(IERC20 => uint256) private _erc20TotalReleased;\n    mapping(IERC20 => mapping(address => uint256)) private _erc20Released;\n\n    /**\n     * @dev Creates an instance of `PaymentSplitter` where each account in `payees` is assigned the number of shares at\n     * the matching position in the `shares` array.\n     *\n     * All addresses in `payees` must be non-zero. Both arrays must have the same non-zero length, and there must be no\n     * duplicates in `payees`.\n     */\n    constructor(address[] memory payees, uint256[] memory shares_) payable {\n        require(payees.length == shares_.length, \"PaymentSplitter: payees and shares length mismatch\");\n        require(payees.length > 0, \"PaymentSplitter: no payees\");\n\n        for (uint256 i = 0; i < payees.length; i++) {\n            _addPayee(payees[i], shares_[i]);\n        }\n    }\n\n    /**\n     * @dev The Ether received will be logged with {PaymentReceived} events. Note that these events are not fully\n     * reliable: it's possible for a contract to receive Ether without triggering this function. This only affects the\n     * reliability of the events, and not the actual splitting of Ether.\n     *\n     * To learn more about this see the Solidity documentation for\n     * https://solidity.readthedocs.io/en/latest/contracts.html#fallback-function[fallback\n     * functions].\n     */\n    receive() external payable virtual {\n        emit PaymentReceived(_msgSender(), msg.value);\n    }\n\n    /**\n     * @dev Getter for the total shares held by payees.\n     */\n    function totalShares() public view returns (uint256) {\n        return _totalShares;\n    }\n\n    /**\n     * @dev Getter for the total amount of Ether already released.\n     */\n    function totalReleased() public view returns (uint256) {\n        return _totalReleased;\n    }\n\n    /**\n     * @dev Getter for the total amount of `token` already released. `token` should be the address of an IERC20\n     * contract.\n     */\n    function totalReleased(IERC20 token) public view returns (uint256) {\n        return _erc20TotalReleased[token];\n    }\n\n    /**\n     * @dev Getter for the amount of shares held by an account.\n     */\n    function shares(address account) public view returns (uint256) {\n        return _shares[account];\n    }\n\n    /**\n     * @dev Getter for the amount of Ether already released to a payee.\n     */\n    function released(address account) public view returns (uint256) {\n        return _released[account];\n    }\n\n    /**\n     * @dev Getter for the amount of `token` tokens already released to a payee. `token` should be the address of an\n     * IERC20 contract.\n     */\n    function released(IERC20 token, address account) public view returns (uint256) {\n        return _erc20Released[token][account];\n    }\n\n    /**\n     * @dev Getter for the address of the payee number `index`.\n     */\n    function payee(uint256 index) public view returns (address) {\n        return _payees[index];\n    }\n\n    /**\n     * @dev Triggers a transfer to `account` of the amount of Ether they are owed, according to their percentage of the\n     * total shares and their previous withdrawals.\n     */\n    function release(address payable account) public virtual {\n        require(_shares[account] > 0, \"PaymentSplitter: account has no shares\");\n\n        uint256 totalReceived = address(this).balance + totalReleased();\n        uint256 payment = _pendingPayment(account, totalReceived, released(account));\n\n        require(payment != 0, \"PaymentSplitter: account is not due payment\");\n\n        _released[account] += payment;\n        _totalReleased += payment;\n\n        Address.sendValue(account, payment);\n        emit PaymentReleased(account, payment);\n    }\n\n    /**\n     * @dev Triggers a transfer to `account` of the amount of `token` tokens they are owed, according to their\n     * percentage of the total shares and their previous withdrawals. `token` must be the address of an IERC20\n     * contract.\n     */\n    function release(IERC20 token, address account) public virtual {\n        require(_shares[account] > 0, \"PaymentSplitter: account has no shares\");\n\n        uint256 totalReceived = token.balanceOf(address(this)) + totalReleased(token);\n        uint256 payment = _pendingPayment(account, totalReceived, released(token, account));\n\n        require(payment != 0, \"PaymentSplitter: account is not due payment\");\n\n        _erc20Released[token][account] += payment;\n        _erc20TotalReleased[token] += payment;\n\n        SafeERC20.safeTransfer(token, account, payment);\n        emit ERC20PaymentReleased(token, account, payment);\n    }\n\n    /**\n     * @dev internal logic for computing the pending payment of an `account` given the token historical balances and\n     * already released amounts.\n     */\n    function _pendingPayment(\n        address account,\n        uint256 totalReceived,\n        uint256 alreadyReleased\n    ) private view returns (uint256) {\n        return (totalReceived * _shares[account]) / _totalShares - alreadyReleased;\n    }\n\n    /**\n     * @dev Add a new payee to the contract.\n     * @param account The address of the payee to add.\n     * @param shares_ The number of shares owned by the payee.\n     */\n    function _addPayee(address account, uint256 shares_) private {\n        require(account != address(0), \"PaymentSplitter: account is the zero address\");\n        require(shares_ > 0, \"PaymentSplitter: shares are 0\");\n        require(_shares[account] == 0, \"PaymentSplitter: account already has shares\");\n\n        _payees.push(account);\n        _shares[account] = shares_;\n        _totalShares = _totalShares + shares_;\n        emit PayeeAdded(account, shares_);\n    }\n}\n",
  "sourcePath": "C:\\Users\\georg\\OneDrive\\Desktop\\oceans6\\blockend\\node_modules\\@openzeppelin\\contracts\\finance\\PaymentSplitter.sol",
  "compiler": {
    "name": "solc",
    "version": "0.8.13+commit.abaa5c0e.Emscripten.clang"
  },
  "schemaVersion": "3.4.7",
  "updatedAt": "2022-05-06T09:28:21.810Z",
  "devdoc": {
    "details": "This contract allows to split Ether payments among a group of accounts. The sender does not need to be aware that the Ether will be split in this way, since it is handled transparently by the contract. The split can be in equal parts or in any other arbitrary proportion. The way this is specified is by assigning each account to a number of shares. Of all the Ether that this contract receives, each account will then be able to claim an amount proportional to the percentage of total shares they were assigned. `PaymentSplitter` follows a _pull payment_ model. This means that payments are not automatically forwarded to the accounts but kept in this contract, and the actual transfer is triggered as a separate step by calling the {release} function. NOTE: This contract assumes that ERC20 tokens will behave similarly to native tokens (Ether). Rebasing tokens, and tokens that apply fees during transfers, are likely to not be supported as expected. If in doubt, we encourage you to run tests before sending real value to this contract.",
    "kind": "dev",
    "methods": {
      "constructor": {
        "details": "Creates an instance of `PaymentSplitter` where each account in `payees` is assigned the number of shares at the matching position in the `shares` array. All addresses in `payees` must be non-zero. Both arrays must have the same non-zero length, and there must be no duplicates in `payees`."
      },
      "payee(uint256)": {
        "details": "Getter for the address of the payee number `index`."
      },
      "release(address)": {
        "details": "Triggers a transfer to `account` of the amount of Ether they are owed, according to their percentage of the total shares and their previous withdrawals."
      },
      "release(address,address)": {
        "details": "Triggers a transfer to `account` of the amount of `token` tokens they are owed, according to their percentage of the total shares and their previous withdrawals. `token` must be the address of an IERC20 contract."
      },
      "released(address)": {
        "details": "Getter for the amount of Ether already released to a payee."
      },
      "released(address,address)": {
        "details": "Getter for the amount of `token` tokens already released to a payee. `token` should be the address of an IERC20 contract."
      },
      "shares(address)": {
        "details": "Getter for the amount of shares held by an account."
      },
      "totalReleased()": {
        "details": "Getter for the total amount of Ether already released."
      },
      "totalReleased(address)": {
        "details": "Getter for the total amount of `token` already released. `token` should be the address of an IERC20 contract."
      },
      "totalShares()": {
        "details": "Getter for the total shares held by payees."
      }
    },
    "title": "PaymentSplitter",
    "version": 1
  },
  "userdoc": {
    "kind": "user",
    "methods": {},
    "version": 1
  }
}