{
  "contractName": "StakeHoldersPool",
  "abi": [
    {
      "inputs": [
        {
          "internalType": "address[]",
          "name": "payees",
          "type": "address[]"
        },
        {
          "internalType": "uint256[]",
          "name": "shares_",
          "type": "uint256[]"
        }
      ],
      "stateMutability": "nonpayable",
      "type": "constructor"
    },
    {
      "anonymous": false,
      "inputs": [
        {
          "indexed": true,
          "internalType": "contract IERC20",
          "name": "token",
          "type": "address"
        },
        {
          "indexed": false,
          "internalType": "address",
          "name": "to",
          "type": "address"
        },
        {
          "indexed": false,
          "internalType": "uint256",
          "name": "amount",
          "type": "uint256"
        }
      ],
      "name": "ERC20PaymentReleased",
      "type": "event"
    },
    {
      "anonymous": false,
      "inputs": [
        {
          "indexed": false,
          "internalType": "address",
          "name": "account",
          "type": "address"
        },
        {
          "indexed": false,
          "internalType": "uint256",
          "name": "shares",
          "type": "uint256"
        }
      ],
      "name": "PayeeAdded",
      "type": "event"
    },
    {
      "anonymous": false,
      "inputs": [
        {
          "indexed": false,
          "internalType": "address",
          "name": "from",
          "type": "address"
        },
        {
          "indexed": false,
          "internalType": "uint256",
          "name": "amount",
          "type": "uint256"
        }
      ],
      "name": "PaymentReceived",
      "type": "event"
    },
    {
      "anonymous": false,
      "inputs": [
        {
          "indexed": false,
          "internalType": "address",
          "name": "to",
          "type": "address"
        },
        {
          "indexed": false,
          "internalType": "uint256",
          "name": "amount",
          "type": "uint256"
        }
      ],
      "name": "PaymentReleased",
      "type": "event"
    },
    {
      "inputs": [
        {
          "internalType": "uint256",
          "name": "index",
          "type": "uint256"
        }
      ],
      "name": "payee",
      "outputs": [
        {
          "internalType": "address",
          "name": "",
          "type": "address"
        }
      ],
      "stateMutability": "view",
      "type": "function"
    },
    {
      "inputs": [
        {
          "internalType": "address payable",
          "name": "account",
          "type": "address"
        }
      ],
      "name": "release",
      "outputs": [],
      "stateMutability": "nonpayable",
      "type": "function"
    },
    {
      "inputs": [
        {
          "internalType": "contract IERC20",
          "name": "token",
          "type": "address"
        },
        {
          "internalType": "address",
          "name": "account",
          "type": "address"
        }
      ],
      "name": "release",
      "outputs": [],
      "stateMutability": "nonpayable",
      "type": "function"
    },
    {
      "inputs": [
        {
          "internalType": "contract IERC20",
          "name": "token",
          "type": "address"
        },
        {
          "internalType": "address",
          "name": "account",
          "type": "address"
        }
      ],
      "name": "released",
      "outputs": [
        {
          "internalType": "uint256",
          "name": "",
          "type": "uint256"
        }
      ],
      "stateMutability": "view",
      "type": "function"
    },
    {
      "inputs": [
        {
          "internalType": "address",
          "name": "account",
          "type": "address"
        }
      ],
      "name": "released",
      "outputs": [
        {
          "internalType": "uint256",
          "name": "",
          "type": "uint256"
        }
      ],
      "stateMutability": "view",
      "type": "function"
    },
    {
      "inputs": [
        {
          "internalType": "address",
          "name": "account",
          "type": "address"
        }
      ],
      "name": "shares",
      "outputs": [
        {
          "internalType": "uint256",
          "name": "",
          "type": "uint256"
        }
      ],
      "stateMutability": "view",
      "type": "function"
    },
    {
      "inputs": [
        {
          "internalType": "contract IERC20",
          "name": "token",
          "type": "address"
        }
      ],
      "name": "totalReleased",
      "outputs": [
        {
          "internalType": "uint256",
          "name": "",
          "type": "uint256"
        }
      ],
      "stateMutability": "view",
      "type": "function"
    },
    {
      "inputs": [],
      "name": "totalReleased",
      "outputs": [
        {
          "internalType": "uint256",
          "name": "",
          "type": "uint256"
        }
      ],
      "stateMutability": "view",
      "type": "function"
    },
    {
      "inputs": [],
      "name": "totalShares",
      "outputs": [
        {
          "internalType": "uint256",
          "name": "",
          "type": "uint256"
        }
      ],
      "stateMutability": "view",
      "type": "function"
    },
    {
      "stateMutability": "payable",
      "type": "receive"
    },
    {
      "inputs": [
        {
          "internalType": "address",
          "name": "account",
          "type": "address"
        }
      ],
      "name": "getDuePayment",
      "outputs": [
        {
          "internalType": "uint256",
          "name": "",
          "type": "uint256"
        }
      ],
      "stateMutability": "view",
      "type": "function"
    }
  ],
  "bytecode": "0x60806040523480156200001157600080fd5b506040516200120338038062001203833981016040819052620000349162000440565b81818051825114620000a85760405162461bcd60e51b815260206004820152603260248201527f5061796d656e7453706c69747465723a2070617965657320616e6420736861726044820152710cae640d8cadccee8d040dad2e6dac2e8c6d60731b60648201526084015b60405180910390fd5b6000825111620000fb5760405162461bcd60e51b815260206004820152601a60248201527f5061796d656e7453706c69747465723a206e6f2070617965657300000000000060448201526064016200009f565b60005b82518110156200016757620001528382815181106200012157620001216200051e565b60200260200101518383815181106200013e576200013e6200051e565b60200260200101516200017260201b60201c565b806200015e816200054a565b915050620000fe565b505050505062000581565b6001600160a01b038216620001df5760405162461bcd60e51b815260206004820152602c60248201527f5061796d656e7453706c69747465723a206163636f756e74206973207468652060448201526b7a65726f206164647265737360a01b60648201526084016200009f565b60008111620002315760405162461bcd60e51b815260206004820152601d60248201527f5061796d656e7453706c69747465723a2073686172657320617265203000000060448201526064016200009f565b6001600160a01b03821660009081526002602052604090205415620002ad5760405162461bcd60e51b815260206004820152602b60248201527f5061796d656e7453706c69747465723a206163636f756e7420616c726561647960448201526a206861732073686172657360a81b60648201526084016200009f565b60048054600181019091557f8a35acfbc15ff81a39ae7d344fd709f28e8600b4aa8c65c6b64bfe7fe36bd19b0180546001600160a01b0319166001600160a01b0384169081179091556000908152600260205260408120829055546200031590829062000566565b600055604080516001600160a01b0384168152602081018390527f40c340f65e17194d14ddddb073d3c9f888e3cb52b5aae0c6c7706b4fbc905fac910160405180910390a15050565b634e487b7160e01b600052604160045260246000fd5b604051601f8201601f191681016001600160401b03811182821017156200039f576200039f6200035e565b604052919050565b60006001600160401b03821115620003c357620003c36200035e565b5060051b60200190565b600082601f830112620003df57600080fd5b81516020620003f8620003f283620003a7565b62000374565b82815260059290921b840181019181810190868411156200041857600080fd5b8286015b848110156200043557805183529183019183016200041c565b509695505050505050565b600080604083850312156200045457600080fd5b82516001600160401b03808211156200046c57600080fd5b818501915085601f8301126200048157600080fd5b8151602062000494620003f283620003a7565b82815260059290921b84018101918181019089841115620004b457600080fd5b948201945b83861015620004eb5785516001600160a01b0381168114620004db5760008081fd5b82529482019490820190620004b9565b918801519196509093505050808211156200050557600080fd5b506200051485828601620003cd565b9150509250929050565b634e487b7160e01b600052603260045260246000fd5b634e487b7160e01b600052601160045260246000fd5b6000600182016200055f576200055f62000534565b5060010190565b600082198211156200057c576200057c62000534565b500190565b610c7280620005916000396000f3fe6080604052600436106100955760003560e01c80639852595c116100595780639852595c146101c7578063ce7c2ac2146101fd578063d79779b214610233578063e33b7de314610269578063f5cfed991461027e57600080fd5b806319165587146100e35780633a98ef3914610105578063406072a91461012957806348b750441461016f5780638b83209b1461018f57600080fd5b366100de577f6ef95f06320e7a25a04a175ca677b7052bdd97131872c2192525a629f51be77033604080516001600160a01b0390921682523460208301520160405180910390a1005b600080fd5b3480156100ef57600080fd5b506101036100fe3660046109e6565b61029e565b005b34801561011157600080fd5b506000545b6040519081526020015b60405180910390f35b34801561013557600080fd5b50610116610144366004610a03565b6001600160a01b03918216600090815260066020908152604080832093909416825291909152205490565b34801561017b57600080fd5b5061010361018a366004610a03565b6103d8565b34801561019b57600080fd5b506101af6101aa366004610a3c565b6105b4565b6040516001600160a01b039091168152602001610120565b3480156101d357600080fd5b506101166101e23660046109e6565b6001600160a01b031660009081526003602052604090205490565b34801561020957600080fd5b506101166102183660046109e6565b6001600160a01b031660009081526002602052604090205490565b34801561023f57600080fd5b5061011661024e3660046109e6565b6001600160a01b031660009081526005602052604090205490565b34801561027557600080fd5b50600154610116565b34801561028a57600080fd5b506101166102993660046109e6565b6105e4565b6001600160a01b0381166000908152600260205260409020546102dc5760405162461bcd60e51b81526004016102d390610a55565b60405180910390fd5b60006102e760015490565b6102f19047610ab1565b9050600061031e8383610319866001600160a01b031660009081526003602052604090205490565b61064a565b9050806000036103405760405162461bcd60e51b81526004016102d390610ac9565b6001600160a01b03831660009081526003602052604081208054839290610368908490610ab1565b9250508190555080600160008282546103819190610ab1565b909155506103919050838261068f565b604080516001600160a01b0385168152602081018390527fdf20fd1e76bc69d672e4814fafb2c449bba3a5369d8359adf9e05e6fde87b056910160405180910390a1505050565b6001600160a01b03811660009081526002602052604090205461040d5760405162461bcd60e51b81526004016102d390610a55565b6001600160a01b0382166000908152600560205260408120546040516370a0823160e01b81523060048201526001600160a01b038516906370a0823190602401602060405180830381865afa15801561046a573d6000803e3d6000fd5b505050506040513d601f19601f8201168201806040525081019061048e9190610b14565b6104989190610ab1565b905060006104d1838361031987876001600160a01b03918216600090815260066020908152604080832093909416825291909152205490565b9050806000036104f35760405162461bcd60e51b81526004016102d390610ac9565b6001600160a01b0380851660009081526006602090815260408083209387168352929052908120805483929061052a908490610ab1565b90915550506001600160a01b03841660009081526005602052604081208054839290610557908490610ab1565b9091555061056890508484836107ad565b604080516001600160a01b038581168252602082018490528616917f3be5b7a71e84ed12875d241991c70855ac5817d847039e17a9d895c1ceb0f18a910160405180910390a250505050565b6000600482815481106105c9576105c9610b2d565b6000918252602090912001546001600160a01b031692915050565b6001600160a01b0381166000908152600360205260408120546000546001600160a01b0384166000908152600260205260409020546001546106269047610ab1565b6106309190610b43565b61063a9190610b62565b6106449190610b84565b92915050565b600080546001600160a01b0385168252600260205260408220548391906106719086610b43565b61067b9190610b62565b6106859190610b84565b90505b9392505050565b804710156106df5760405162461bcd60e51b815260206004820152601d60248201527f416464726573733a20696e73756666696369656e742062616c616e636500000060448201526064016102d3565b6000826001600160a01b03168260405160006040518083038185875af1925050503d806000811461072c576040519150601f19603f3d011682016040523d82523d6000602084013e610731565b606091505b50509050806107a85760405162461bcd60e51b815260206004820152603a60248201527f416464726573733a20756e61626c6520746f2073656e642076616c75652c207260448201527f6563697069656e74206d6179206861766520726576657274656400000000000060648201526084016102d3565b505050565b604080516001600160a01b03848116602483015260448083018590528351808403909101815260649092018352602080830180516001600160e01b031663a9059cbb60e01b17905283518085019094528084527f5361666545524332303a206c6f772d6c6576656c2063616c6c206661696c6564908401526107a89286929160009161083d9185169084906108ba565b8051909150156107a8578080602001905181019061085b9190610b9b565b6107a85760405162461bcd60e51b815260206004820152602a60248201527f5361666545524332303a204552433230206f7065726174696f6e20646964206e6044820152691bdd081cdd58d8d9595960b21b60648201526084016102d3565b60606106858484600085856001600160a01b0385163b61091c5760405162461bcd60e51b815260206004820152601d60248201527f416464726573733a2063616c6c20746f206e6f6e2d636f6e747261637400000060448201526064016102d3565b600080866001600160a01b031685876040516109389190610bed565b60006040518083038185875af1925050503d8060008114610975576040519150601f19603f3d011682016040523d82523d6000602084013e61097a565b606091505b509150915061098a828286610995565b979650505050505050565b606083156109a4575081610688565b8251156109b45782518084602001fd5b8160405162461bcd60e51b81526004016102d39190610c09565b6001600160a01b03811681146109e357600080fd5b50565b6000602082840312156109f857600080fd5b8135610688816109ce565b60008060408385031215610a1657600080fd5b8235610a21816109ce565b91506020830135610a31816109ce565b809150509250929050565b600060208284031215610a4e57600080fd5b5035919050565b60208082526026908201527f5061796d656e7453706c69747465723a206163636f756e7420686173206e6f2060408201526573686172657360d01b606082015260800190565b634e487b7160e01b600052601160045260246000fd5b60008219821115610ac457610ac4610a9b565b500190565b6020808252602b908201527f5061796d656e7453706c69747465723a206163636f756e74206973206e6f742060408201526a191d59481c185e5b595b9d60aa1b606082015260800190565b600060208284031215610b2657600080fd5b5051919050565b634e487b7160e01b600052603260045260246000fd5b6000816000190483118215151615610b5d57610b5d610a9b565b500290565b600082610b7f57634e487b7160e01b600052601260045260246000fd5b500490565b600082821015610b9657610b96610a9b565b500390565b600060208284031215610bad57600080fd5b8151801515811461068857600080fd5b60005b83811015610bd8578181015183820152602001610bc0565b83811115610be7576000848401525b50505050565b60008251610bff818460208701610bbd565b9190910192915050565b6020815260008251806020840152610c28816040850160208701610bbd565b601f01601f1916919091016040019291505056fea2646970667358221220f37b1411cb59ae446b7c3fbce9a64c1d4f98af7a2c9b858ad2b86e01b036ab9464736f6c634300080d0033",
  "immutableReferences": {},
  "source": "// SPDX-License-Identifier: MIT\r\npragma solidity ^0.8.0;\r\n\r\n/// @notice Payment Splitter\r\nimport \"../node_modules/@openzeppelin/contracts/finance/PaymentSplitter.sol\";\r\n\r\n/// @title OceanSix721 Funds and Royalties Splitter \r\n/// @notice Split Ether payments amoung a group of accounts\r\n/// @author cryptoware.eth | Ocean6\r\n\r\ncontract StakeHoldersPool is PaymentSplitter {\r\n    /// @notice Creates an instance of 'PaymentSplitter' where each account in 'payees' is assigned the number of shares at the matching \r\n    /// positions in the 'shares' array\r\n    /// @param payees accounts to be paid\r\n    /// @param shares_ funds share for each account\r\n\r\n    constructor(address[] memory payees, uint256[] memory shares_)\r\n        PaymentSplitter(payees, shares_)\r\n    {}\r\n\r\n    function getDuePayment(address account) external view returns (uint256) {\r\n        return ((address(this).balance + totalReleased()) * shares(account)) / totalShares() - released(account);\r\n    }\r\n}\r\n",
  "sourcePath": "C:\\Users\\georg\\OneDrive\\Desktop\\oceans6\\blockend\\contracts\\StakeHoldersPool.sol",
  "compiler": {
    "name": "solc",
    "version": "0.8.13+commit.abaa5c0e.Emscripten.clang"
  },
  "schemaVersion": "3.4.7",
  "updatedAt": "2022-05-06T09:28:21.796Z",
  "devdoc": {
    "author": "cryptoware.eth | Ocean6",
    "kind": "dev",
    "methods": {
      "constructor": {
        "params": {
          "payees": "accounts to be paid",
          "shares_": "funds share for each account"
        }
      },
      "payee(uint256)": {
        "details": "Getter for the address of the payee number `index`."
      },
      "release(address)": {
        "details": "Triggers a transfer to `account` of the amount of Ether they are owed, according to their percentage of the total shares and their previous withdrawals."
      },
      "release(address,address)": {
        "details": "Triggers a transfer to `account` of the amount of `token` tokens they are owed, according to their percentage of the total shares and their previous withdrawals. `token` must be the address of an IERC20 contract."
      },
      "released(address)": {
        "details": "Getter for the amount of Ether already released to a payee."
      },
      "released(address,address)": {
        "details": "Getter for the amount of `token` tokens already released to a payee. `token` should be the address of an IERC20 contract."
      },
      "shares(address)": {
        "details": "Getter for the amount of shares held by an account."
      },
      "totalReleased()": {
        "details": "Getter for the total amount of Ether already released."
      },
      "totalReleased(address)": {
        "details": "Getter for the total amount of `token` already released. `token` should be the address of an IERC20 contract."
      },
      "totalShares()": {
        "details": "Getter for the total shares held by payees."
      }
    },
    "title": "OceanSix721 Funds and Royalties Splitter ",
    "version": 1
  },
  "userdoc": {
    "kind": "user",
    "methods": {
      "constructor": {
        "notice": "Creates an instance of 'PaymentSplitter' where each account in 'payees' is assigned the number of shares at the matching  positions in the 'shares' array"
      }
    },
    "notice": "Split Ether payments amoung a group of accounts",
    "version": 1
  }
}